:100000000C946D0C189518951895189518951895C9
:100010001895189518951895189518951895189578
:100020001895189518951895189518950C944206DA
:100030000C94B5060C94300A189518950C94870BFF
:100040001895189518951895189518951895189548
:1000500018951895FFFFFFFFFFFFFFFFFFFFFFFF52
:10006000FFFFFFFFFFFFFFFFFFFFFFFFFFFFFFFFA0
:10007000FFFFFFFFFFFFFFFFFFFFFFFFFFFFFFFF90
:10008000FFFFFFFF81F349613325FBB10121FFFF32
:10009000FFFFFFFFFF11018DFF0D1DFF13FFFFFF8E
:1000A00087FFFF81FF19FF25FF13FFFFFFFFFFFF02
:1000B000FFFFFFEFFFFF074F43FFFFFF1FFFFFFFA4
:1000C000CFFFFF5747FFFF5FFFFFC7FFFFFFFFFFA8
:1000D000FFF3FFFF80250000000100010101010185
:1000E0000101011113010001000100002900EC00D1
:1000F0009A1EFC00150100001127222717E0079522
:1001000008F420951A951123D1F7022F089511278D
:10011000222718E0079508F420951A951123D1F7A6
:10012000022F0895592F482F239700E0009365016F
:1001300000E010E0088319831BC001E328813981A6
:10014000F901EA59FE4F008300EA28813981F9015B
:10015000EA58FE4F008305E028813981F901EA570A
:10016000FE4F0083088119810F5F1F4F0883198399
:10017000888199818031904004F300E010E0E6E945
:10018000F1E00083118300E0009398010FEF0ABBB8
:1001900001E0009365012396842F952F08958A939B
:1001A0001FEF1ABB1BB32FEF2BBB039500939801D6
:1001B00000919801003118F000E00093980100913F
:1001C000980110E0F801EA58FE4F0081000F00E0AE
:1001D000001F005089F404E510E02091980130E000
:1001E000F901EA59FE4F2081E22FF0E0EF77F0703D
:1001F000E00FF11F849107C00091980110E0F80111
:10020000EA59FE4F80810091980110E0F801EA5808
:10021000FE4F008102950F7006950B7F10E0005095
:1002200019F0025019F023C08FEF21C0E6E9F1E088
:100230000081118144E650E00E94A10C20919801B8
:1002400030E0F901EA57FE4F408150E00E94A10CD6
:1002500020E030E00E94330D40E050E060E07FE3BA
:100260000E949E0D0E94350D00FB0EF48FEFBC9A8C
:10027000BD9ABE9ABF9AE8E9F1E0008100FD02C094
:10028000C49801C0C49AE8E9F1E0008101FD02C010
:10029000C59801C0C59AE8E9F1E0008102FD02C0FD
:1002A000C69801C0C69AE8E9F1E0008103FD02C0EA
:1002B000C79801C0C79A0FEF0ABB8BBB89910895FD
:1002C000592F482F239700E00093150100E010E01C
:1002D0000883198322C000E028813981F901E95E91
:1002E000FE4F008300E028813981F901E05EFE4F76
:1002F000008300E028813981F901E75DFE4F00832A
:1003000000E028813981F901EE5CFE4F008308810D
:1003100019810F5F1F4F0883198388819981883065
:100320009040CCF200E000931F0100E00093280110
:1003300000E00093310100E000933A0100E00093F7
:100340003B0100E000933C0100E000933D0100E030
:1003500000933E0100E000933F0100E00093400164
:1003600000E00093410100E00093420100E00093AF
:10037000430100E00093440100E00093450100E0E8
:100380000093460100E00093470100E0009348011C
:1003900000E00093490100E000934A0100E000936F
:1003A0004B0100E000934C0100E000934D0100E0A0
:1003B00000934E0100E000934F0100E000935001D4
:1003C00000E00093510100E00093520100E010E0D2
:1003D0000883198322C001E028813981F901ED5A8F
:1003E000FE4F008301E028813981F901E95AFE4F6F
:1003F000008301E028813981F901E55AFE4F00832D
:1004000001E028813981F901E15AFE4F008308811A
:1004100019810F5F1F4F0883198388819981843068
:100420009040CCF201E00093150100E0009316012A
:100430002396842F952F089509B7026009BF03B74B
:10044000036003BF0DE8009363010091630102BFE5
:10045000089509B70D7F09BF03B7087F03BF08954B
:10046000F8DF00B7016000BF00B70E7F00BF03B721
:100470000F7E03BF03B70F7D03BF03B70F7703BF23
:1004800003B70F7B03BF03B7077F03BF089521970F
:10049000A49AAC9A00E0088304C0AC980881039544
:1004A000088308810233C8F3AC9A04B3007F04BB0D
:1004B00003B30F7010913B0120911F0130E0F9014F
:1004C000E95EFE4F20812170121B10933B01102F1B
:1004D0001170EBE3F1E02081210F208310913C01AA
:1004E00020911F0130E0F901E95EFE4F208122706A
:1004F0002595121B10933C01102F12701595ECE3FB
:10050000F1E02081210F208310913D0120911F01F6
:1005100030E0F901E95EFE4F208124702595259594
:10052000121B10933D01102F147015951595EDE3D6
:10053000F1E02081210F208310913E0120911F01C5
:1005400030E0F901E95EFE4F208128702595259560
:100550002595121B10933E01102F187015951595B7
:100560001595EEE3F1E02081210F208320911F01FA
:1005700030E0F901E95EFE4F008300911F01039511
:10058000077000931F0100914B0100934F0100E0A1
:1005900000934B0100913B0148E00E94830C0883CB
:1005A00000914B011881102B10934B0100913C01DD
:1005B00048E00E94830C088300914B011881110FC1
:1005C000102B10934B0100913D0148E00E94830CD9
:1005D000088300914B011881110F110F102B1093FC
:1005E0004B0100913E0148E00E94830C088300917A
:1005F0004B011881110F110F110F102B10934B018C
:10060000A59AAD9A00E0088304C0AD9808810395CF
:10061000088308810233C8F3AD9A04B3007F04BB9A
:1006200003B30F7010913F012091280130E0F901D0
:10063000E05EFE4F20812170121B10933F01102FAE
:100640001170EFE3F1E02081210F20831091400130
:100650002091280130E0F901E05EFE4F20812270F8
:100660002595121B10934001102F12701595E0E490
:10067000F1E02081210F2083109141012091280178
:1006800030E0F901E05EFE4F20812470259525952C
:10069000121B10934101102F147015951595E1E46C
:1006A000F1E02081210F2083109142012091280147
:1006B00030E0F901E05EFE4F2081287025952595F8
:1006C0002595121B10934201102F18701595159542
:1006D0001595E2E4F1E02081210F2083209128018B
:1006E00030E0F901E05EFE4F0083009128010395A0
:1006F00007700093280100914C010093500100E025
:1007000000934C0100913F0148E00E94830C088354
:1007100000914C011881102B10934C010091400165
:1007200048E00E94830C088300914C011881110F4E
:10073000102B10934C010091410148E00E94830C62
:10074000088300914C011881110F110F102B109389
:100750004C010091420148E00E94830C0883009103
:100760004C011881110F110F110F102B10934C0118
:10077000A69AAE9A00E0088304C0AE98088103955B
:10078000088308810233C8F3AE9A04B3007F04BB28
:1007900003B30F70109143012091310130E0F90152
:1007A000E75DFE4F20812170121B10934301102F33
:1007B0001170E3E4F1E02081210F208310914401C6
:1007C0002091310130E0F901E75DFE4F2081227078
:1007D0002595121B10934401102F12701595E4E417
:1007E000F1E02081210F20831091450120913101FA
:1007F00030E0F901E75DFE4F2081247025952595B5
:10080000121B10934501102F147015951595E5E4F2
:10081000F1E02081210F20831091460120913101C8
:1008200030E0F901E75DFE4F208128702595259580
:100830002595121B10934601102F187015951595CC
:100840001595E6E4F1E02081210F2083209131010C
:1008500030E0F901E75DFE4F00830091310103951F
:1008600007700093310100914D010093510100E0A8
:1008700000934D010091430148E00E94830C0883DE
:1008800000914D011881102B10934D0100914401EE
:1008900048E00E94830C088300914D011881110FDC
:1008A000102B10934D010091450148E00E94830CEC
:1008B000088300914D011881110F110F102B109317
:1008C0004D010091460148E00E94830C088300918D
:1008D0004D011881110F110F110F102B10934D01A5
:1008E000A79AAF9A00E0088304C0AF9808810395E7
:1008F000088308810233C8F3AF9A04B3007F04BBB6
:1009000003B30F701091470120913A0130E0F901D3
:10091000EE5CFE4F20812170121B10934701102FB7
:100920001170E7E4F1E02081210F2083109148014C
:1009300020913A0130E0F901EE5CFE4F20812270F7
:100940002595121B10934801102F12701595E8E49D
:10095000F1E02081210F20831091490120913A017B
:1009600030E0F901EE5CFE4F20812470259525953D
:10097000121B10934901102F147015951595E9E479
:10098000F1E02081210F208310914A0120913A014A
:1009900030E0F901EE5CFE4F208128702595259509
:1009A0002595121B10934A01102F18701595159557
:1009B0001595EAE4F1E02081210F208320913A018E
:1009C00030E0F901EE5CFE4F008300913A0103959F
:1009D000077000933A0100914E010093520100E02C
:1009E00000934E010091470148E00E94830C088368
:1009F00000914E011881102B10934E010091480177
:100A000048E00E94830C088300914E011881110F69
:100A1000102B10934E010091490148E00E94830C75
:100A2000088300914E011881110F110F102B1093A4
:100A30004E0100914A0148E00E94830C0883009116
:100A40004E011881110F110F110F102B10934E0131
:100A500000914D011091510121960895102F1050D1
:100A600039F01A95A1F01A9509F11A9571F13CC067
:100A700010914B0120914F0110952095212310E0FA
:100A8000F801ED5AFE4F108112231F702EC01091F5
:100A90004C012091500110952095212310E0F80180
:100AA000ED5AFE4F108112231F701FC010914D018F
:100AB0002091510110952095212310E0F801ED5A65
:100AC000FE4F108112231F7010C010914E01209113
:100AD000520110952095212310E0F801ED5AFE4FA8
:100AE000108112231F7001C010E0012F0895102FF4
:100AF000105039F01A9599F01A95F9F01A9559F1A4
:100B000038C010914B0120914F012095212310E016
:100B1000F801E95AFE4F108112231F702BC010916B
:100B20004C01209150012095212310E0F801E95A51
:100B3000FE4F108112231F701DC010914D01209196
:100B400051012095212310E0F801E95AFE4F108150
:100B500012231F700FC010914E0120915201209559
:100B6000212310E0F801E95AFE4F108112231F7073
:100B700001C010E0012F0895102F105039F01A9580
:100B800099F01A95F9F01A9559F138C020914B0156
:100B900010914F012095212310E0F801E55AFE4FF6
:100BA000108112231F702BC020914C011091500115
:100BB0002095212310E0F801E55AFE4F1081122301
:100BC0001F701DC020914D011091510120952123CE
:100BD00010E0F801E55AFE4F108112231F700FC07C
:100BE00020914E01109152012095212310E0F8012F
:100BF000E55AFE4F108112231F7001C010E0012F33
:100C00000895102F105039F01A9591F01A95E9F0C7
:100C10001A9541F134C010914B0120914F012123CD
:100C200010E0F801E15AFE4F108112231F7028C016
:100C300010914C0120915001212310E0F801E15A5C
:100C4000FE4F108112231F701BC010914D01209187
:100C50005101212310E0F801E15AFE4F10811223C7
:100C60001F700EC010914E0120915201212310E0FF
:100C7000F801E15AFE4F108112231F7001C010E0ED
:100C8000012F08959A938A93FA93EA933A922A92BB
:100C90001A920A927A936A935A934A933A932A93AE
:100CA0001A930A939FB70FEF0ABBD89800911501CA
:100CB0000A9519F00A9579F00FC0E9DB0091160149
:100CC0000B3018F002E000931501E6E1F1E000813D
:100CD0000395008301C0DBDB00E080E004C0082F47
:100CE000BDDE000F83958430D0F300E080E004C0C7
:100CF000082FFDDE000F83958430D0F300E080E004
:100D000004C0082F39DF000F83958430D0F300E052
:100D100080E004C0082F75DF000F83958430D0F386
:100D2000009198013CDA0FEF0ABBD89AE6E9F1E0AE
:100D3000008111810F5F1F4F0083118300916301B8
:100D400012B7100F12BF9FBF0991199129913991C4
:100D50004991599169917991099019902990399007
:100D6000E991F991899199911895FA93EA931A93D7
:100D70000A931FB705E50FB9E4E6F1E0008103959A
:100D800000831FBF09911991E991F99118952B974B
:100D9000F8940E9489080CE71DED0E94A20700E06C
:100DA0000E94230801E00E94620800E00E943908C6
:100DB0000E94CA090E94C6090E94F6090E94FD0904
:100DC0000E94E6090E94CE090E94EE090E94DA09FB
:100DD0000E94DE090E94D2090E94F2090E94EA09DB
:100DE0000E94800900E010E009831A8369DA00E0BC
:100DF0000093990197D934DB78941EDB0CEE10E058
:100E00000E94130E0B831C8300E010E009831A83F9
:100E100009811A810F5F1F4F09831A8301E6088336
:100E200000E010E00D831E8300E010E00B831C83C4
:100E300000E010E020E030E00F83188729873A8730
:100E4000E7CF539A549A579A0895539854985798BD
:100E50000895E4EDF0E0059114913197EBE9F1E0AC
:100E600000831183E6EDF0E0049100939D01E7ED2E
:100E7000F0E0049100939E01E8EDF0E0049100930E
:100E80009F01E9EDF0E004910093A001EAEDF0E0AC
:100E900004910093A101EBEDF0E004910093A20115
:100EA000ECEDF0E004910093A301EDEDF0E004918E
:100EB0000093A401EEEDF0E004910093A501EFEDA5
:100EC000F0E004910093A601E0EEF0E004910093BD
:100ED000A701E1EEF0E004910093A801E2EEF0E05A
:100EE00004910093A901E3EEF0E004910093AA01BC
:100EF000E4EEF0E004910093AB01E5EEF0E0049144
:100F00000093AC01E6EEF0E004910093AF01E7EE50
:100F1000F0E004910093AE01E8EEF0E0049100935C
:100F2000AD01E9EEF0E004910093B001EAEEF0E0EB
:100F300004910093B101EBEEF0E004910093B20153
:100F4000089508950E94F30D2697C8017EDF01E001
:100F500009830BB102700883FC01E050F649C9F027
:100F6000E050FB44B1F0EC52F04299F0EC52F14009
:100F700081F0E855F24069F0E05BF44051F0E05652
:100F8000F94039F0E05CF24121F0E058F54209F017
:100F900053C00881002331F500E018E027E030E07D
:100FA000AC0160E070E00E94C60C0150104020408F
:100FB00030400A831B832C833D830A811B812C8153
:100FC0003D8109B90A811B812C813D81A0B5A07F9B
:100FD00040E051E060E070E00E94C60C0F700A2B08
:100FE00000BD25C000E010E12EE030E0AC0160E083
:100FF00070E00E94C60C01501040204030400A832F
:101000001B832C833D830A811B812C813D8109B97F
:101010000A811B812C813D81A0B5A07F40E051E079
:1010200060E070E00E94C60C0F700A2B00BDEBE977
:10103000F1E08083918302C000E0098302DF2696FD
:10104000E3E00C94040E8A93802FFFDE882339F4AA
:101050005998EBE9F1E00081118174DF07C05998DC
:10106000EBE9F1E0008111816DDF599AEADE8991A7
:1010700008958A93802FE9DE082F005029F001504F
:10108000C8F0045030F016C000E02DD080939F01CE
:1010900016C080939F010091A001005019F00A959D
:1010A00019F005C000E01FD001E01DD008C000E02D
:1010B0001AD005C000E000939F0100E014D0C1DE0B
:1010C000899108958A93802FC0DE082F005011F077
:1010D0000A9519F48093A00103C001E00093A001D8
:1010E000B0DE89910895102F105019F01A9531F043
:1010F0000AC05298509800939E010895529A509AAF
:1011000000939E0108955298509800E000939E012C
:1011100008959A938A93239714B305E001270A83CD
:101120000A8104BB15B305E001270A830A8105BBC8
:1011300002E00AB90CB10A8300E20BB900B5007FE6
:1011400000BD00E009B901E010E0088319830DC07B
:1011500000E028813981F901EB52FE4F00830881BC
:1011600019810F5F1F4F088319838881998181320C
:10117000904074F300E00093F50100E00093F60165
:1011800001E010E0088319830DC000E02881398157
:10119000F901ED54FE4F0083088119810F5F1F4F45
:1011A00008831983888199818132904074F300E02B
:1011B0000093D30100E00093D40101E010E0088324
:1011C000198313C080E090E00881198142E050E06B
:1011D0000E94910CF801E950FE4F808391830881B1
:1011E00019810F5F1F4F0883198388819981863089
:1011F000904044F300E010E020E030E0E1E0F2E075
:10120000008311832283338300E010E020E030E08C
:10121000E9E0F2E0008311832283338300E010E0F1
:1012200020E030E0E5E0F2E00083118322833383A5
:1012300000E010E020E030E0EDE0F2E00083118318
:101240002283338300E010E0EBE9F1E000831183B7
:1012500000E000939D0100E000939E0100E00093F8
:101260009F0101E00093A00100E00093A10100E0D4
:101270000093A20101E00093A30100E00093A40108
:1012800001E00093A50100E00093A60101E00093B6
:10129000A70100E00093A80101E00093A90100E08C
:1012A0000093AC0100E00093AF0100E00093AE01B9
:1012B00000E00093AD0100E00093B00100E0009376
:1012C000B10100E000939A01009114010A9519F010
:1012D0000A9519F003C035DE01C0BBDD01E00093C3
:1012E0009A01EBE9F1E0008111812CDE02E000932C
:1012F0009A0103E000939A012396899199910895A8
:101300000E94F20DA2DD81E090E00DC0A0E0B0E00F
:101310008C0142E050E00E94910CF801E950FE4F30
:10132000A083B1830196863000E0900778F300E057
:1013300010E020E030E0E1E0F2E00083118322835E
:10134000338300E010E020E030E0E9E0F2E00083E9
:1013500011832283338300E010E020E030E0E5E0F9
:10136000F2E0008311832283338300E010E020E069
:1013700030E0EDE0F2E0008311832283338301E06B
:101380000093B2015EDDE4E00C94030E00E00093F4
:10139000A101089501E00093B001089500E00093D9
:1013A000A201089500E00093A301A29A0091A30175
:1013B000AA9A089500E00093A601089500E0009322
:1013C000A701A09A0091A701A89A089500E00093B0
:1013D000A401089500E00093A501089500E00093A2
:1013E000A801089500E00093A901089500E000938A
:1013F000AD0100E00093AE01089500E00093AF015D
:1014000000E00093AC0108952091B201222369F01D
:1014100042E050E00E94910CF801E950FE4F00813B
:1014200011810F5F1F4F0083118308952091F501F3
:1014300023952F711091F6012117E1F330E0F901A6
:10144000EB52FE4F00832093F501559A08959A932D
:101450008A93C801082FEADF8C0189919991089538
:10146000BA93AA939A938A93FA93EA933A922A9216
:101470001A920A927A936A935A934A933A932A93C6
:101480001A930A93BFB723970091A101005041F02E
:101490000091A2010A9521F4A29A0091A301AA9AAF
:1014A0000091A1010050B1F00091A4010A9541F40E
:1014B000A39803B308700595059505950093A501BC
:1014C0000091A8010A9531F4A19803B30270059523
:1014D0000093A90100E008835C9B05C001E008833C
:1014E00001E010E091DFACB1589B05C001E008833A
:1014F00002E010E089DF0091A001005019F00A9588
:1015000061F012C00A2F0E947C00902F8A2F8078F1
:10151000082F000F80E0881F07C00A2F0E94870055
:10152000902F8AB18270859500919F010A9539F0BC
:101530000A9571F00A95B1F00A95E1F022C0917018
:101540008917F9F001E0088303E010E05DDF19C0BE
:10155000909591708917A9F001E0088303E010E0ED
:1015600053DF0FC0813069F001E0088303E010E031
:101570004BDF07C0882329F001E0088303E010E077
:1015800043DF0881002309F09BC08091D30183953C
:101590008F710091D401801721F404E010E034DF52
:1015A00002C08093D3010091A1010A9509F051C0B6
:1015B0000091D3010D3150F00091A6010A9579F404
:1015C000A09AA89A01E00093A70109C00091A60182
:1015D0000A9529F4A09AA89800E00093A701009129
:1015E000AE010A95B1F50091D3010D3140F10091A2
:1015F000AD01005039F00150D8F0045060F00050B7
:1016000081F016C00091AB0111DFEDEAF1E000813D
:10161000039500831EC0EDEAF1E00081039500838D
:1016200018C00091AB0102DF01E00093AD0111C0D1
:101630000091AB01FBDE01E00093AD010AC0009117
:10164000AD01005031F00091AA01F0DE00E00093FE
:10165000AD0108810023D9F490E0FC01ED54FE4F68
:10166000A0830091A1010A9591F40091AC010A9523
:1016700071F40091AB01A01719F401E00093AF01E0
:101680000091AA01A01719F400E00093AF010091A6
:10169000B001013011F40A2FC9DE0091B20101300E
:1016A00009F5E1E0F2E000811181228133810F5FD1
:1016B0001F4F2F4F3F4F008311832283338312C06C
:1016C0000091B201013071F4E5E0F2E00081118196
:1016D000228133810F5F1F4F2F4F3F4F00831183B4
:1016E000228333832396BFBF0991199129913991A0
:1016F000499159916991799109901990299039905E
:10170000E991F99189919991A991B99118959A9333
:101710008A93FA93EA933A922A921A920A927A93C5
:101720006A935A934A933A932A931A930A939FB7C8
:1017300001E01091A1011A9541F41091A2011A95AE
:1017400021F4A29A1091A301AA9A1091A1011A95CD
:1017500041F41091A6011A9521F4A09A1091A701C5
:10176000A89A1091A1011A95B1F41091A4011A95AB
:1017700041F4A39813B3187015951595159510930A
:10178000A5011091A8011A9531F4A19813B3127014
:1017900015951093A9011091A1011A9569F5109161
:1017A000AC01113029F41091AF01105009F000E0A4
:1017B0001091A801113029F41091A9011A9509F48A
:1017C00000E01091A401113029F41091A5011A959F
:1017D00009F400E01091A601113029F41091A7013D
:1017E0001A9509F400E01091A201113029F410912A
:1017F000A3011A9509F400E0013009F05BC00091E3
:10180000F5011091F601011709F452C00091F6019B
:1018100003950F710093F60110E0F801EB52FE4FB3
:1018200080810091A001005019F00A9529F008C0AC
:10183000082F0E947C0007C0082F0E94870003C069
:10184000082F0E94870010919F011050D1F01A9527
:1018500039F01A9559F01A9579F01A9579F010C067
:10186000002311F450980DC0509A0BC0002311F4BE
:10187000509A07C0509805C0509A03C0509801C0B4
:10188000509A10E0509913952091A001205019F022
:101890002A9559F00BC0082F0068112319F40F770F
:1018A00010E004C0006811E001C0082F0CB903C0AB
:1018B000559801C055989FBF099119912991399167
:1018C000499159916991799109901990299039908C
:1018D000E991F9918991999118950CEE03500DBFFA
:1018E00000E000400EBFC0EBD0E00E940E0E0023CF
:1018F00011F00E942E0E00E00BBF0E94C7060E944E
:10190000480E0C94480E0024E8E0EA9532F0001FDF
:10191000001C0416D0F3041AF8CF001F402D0095C8
:101920000895002411240030010741F01695079511
:1019300010F4040E151E440F551FF5CF002D112D68
:10194000089500241124EFE0001F111F001C111C3A
:101950000416150610F0041A150AEA95AAF7001FD6
:10196000111F402D512D009510950895309520950B
:10197000109501951F4F2F4F3F4F08954A952AF01C
:101980003695279517950795F9CF089500241124CA
:1019900022243324E0E2EA9592F0001F111F221F57
:1019A000331F001C111C221C331C041615062606AE
:1019B000370688F3041A150A260A370AECCF001FE7
:1019C000111F221F331F402D512D622D732D0095A5
:1019D0001095209530950895FF271124770F1794BF
:1019E000660F7F1F09F008946795EE270024330FD8
:1019F0000794220F3E1F09F008942795089527FDAC
:101A00000EC0EE0F001F111F221F3A953230B8F79B
:101A1000332319F427FD31E002C027FF30E0E0381E
:101A200011F400FF08940F4F1F4F2F4F3F4F3230DC
:101A300038F4332319F427FD31E002C027FF30E0EA
:101A40003F3F09F4BBC0220F000C3795279508953E
:101A5000032E002012F40E94B60CE02F012F122F4B
:101A6000232F3EE9D3CF0024F8CFBFDF432F4F57BA
:101A700060F0403260F000202AF00FEF1FEF2FEFF0
:101A80003FE7089530E8222796C03327FCCF322F56
:101A9000212F102F0E2F4F5141950E94BE0C07FE93
:101AA00008950C94B60CE22FEF77E0301E070E0776
:101AB0000895E62FEF77E0305E074E070895E32F95
:101AC000EE0F27FBE0F9EF3F61F0EE2311F4EBDFBF
:101AD00029F0332398948894B89408953323189464
:101AE000FACFE1DF19F00894B89403C03323889447
:101AF000389498940895E72FEE0F67FBE0F9EF3FD5
:101B000041F0EE2311F4D5DF11F07723E3CF7723F3
:101B1000E6CFCFDF41F77723EACFEDDF70F029F48E
:101B20003723262F152F042F0895372FFACFE3DF01
:101B300020F00BF008957327EAF744C0C0DFE8F304
:101B4000B3F359F3D8DFC8F383F3A1F345DF4017AC
:101B500051076207730778F0332E372F732D322E1B
:101B6000262F632D312E152F532D302E042F432D6C
:101B7000302C012C132C371739F066955795479563
:101B8000F795E7957395F7CFEE0FE0E010245AF044
:101B9000EF0F041F151F261F50F427951795079563
:101BA000E795339533CFEF0B040B150B260B2ECF98
:101BB000302D307822271127002708953FE730295C
:101BC00020E8F9CF302D3F672FEFF5CFFA92EA9258
:101BD000DA92CA92BA92AA929A928A927A926A9265
:101BE0005A924A92BA93AA939A938A930895FF8439
:101BF000EE84DD84CC84BB84AA84998488847F802D
:101C00006E805D804C80BB81AA8199818881F0E0E3
:101C10000FB6F894CE0FDF1F0FBE089501E00895B0
:101C200010E00C94270A22979E012E5F3F4F2883D5
:101C30003983BE0140E050E020E13EE00E944B0EBF
:101C40002296089520E02D9301501040D9F7089571
:101C500025912D9301501040D9F708958CEE90E016
:101C6000FC0105911491FC013296A591B491FC01FF
:101C7000349625913491422F432B19F0F901E8DF76
:101C800001C0E0DF069610E0883F910748F3089511
:101C900000008895FECF0E94E60D269708831983E1
:101CA0002A833B834C835D834B01CC24DD2401C01C
:101CB000C4D0C7D005E2A01639F0AA20C9F7860122
:101CC0002696E0E10C94F70D10E000E02081285604
:101CD00021F0245041F401E001C011E09F012F5F89
:101CE0003F4F28833983ADD02A2D285509F46DC084
:101CF0002B5059F02A9509F458C02B50E1F024508C
:101D000061F0255009F461C0D3CFD401ED91FC916D
:101D1000A190B190FC93EE93CBCFD401ED91FC91C7
:101D200081919191FC93EE93FC01A190CF01AA20A7
:101D300001F283D0F9CF28E094D011F4002379F593
:101D4000442420E8522E66247724112309F44CC041
:101D50007ED009F046C0A92FAA0FAA0BBA2F04E61D
:101D6000A01669F4BB235AF49095A095B09581957F
:101D70009F4FAF4FBF4F2C813D810DE276D002E0E7
:101D8000401600E050066006700608F44CC084154A
:101D90009505A605B70508F046C06FD0F0CF4424DE
:101DA0005524662400E4702E21C02AE05AD011F494
:101DB000002321F420E1422E27E2C4CF44240AEC80
:101DC000502E0AE9602E0BE3EECF20E14AD011F449
:101DD000002311F44424B6CF44245524662400E1A2
:101DE000E2CFA0E0B0E0CBCF002361F0F401A0810E
:101DF000B1810D911D912D913D91A083B183C801B9
:101E0000D901ADCF24D069F7A6CF495F2C813D81A0
:101E1000042F2BD03CD0CA01DB012FD0012B022B89
:101E2000032B09F446CF33D0402F405D4A3370F383
:101E300008E7A01651F7495DE9CF2C813D810A2DB5
:101E400014C0E881F981A190E883F983089504E63C
:101E5000A016F401A081B1818D919D91A083B183E1
:101E60000895E22EFF2411230895EA81FB8109954C
:101E700001E0C00E00E0D01E089582019301A70189
:101E800060E070E00E94C60C2801390108958C01C1
:101E90009D01A201B3010C94C60C546573742076A5
:101EA000657220302E303120666F722066696C6555
:101EB00020274131782E6327205541525430200A83
:101EC0000D0002FFFFFFFFFFFFFFFFFFFFFFFFFF10
:101ED000FFFFFFFFFFFFFFFFFFFFFFFFFFFFFFFF12
:101EE000FFFFFFFFFFFFFFFFFFFFFFFFFFFFFFFF02
:101EF000FFFFFFFFFFFFFFFFFFFFFFFFFFFFFFFFF2
:101F0000FFFFFFFFFFFFFFFFFFFFFFFFFFFFFFFFE1
:00000001FF
