:100000000C94B10018951895189518951895189591
:100010001895189518951895189518951895189578
:100020001895189518951895189518951895189568
:10003000189518950C943A00189518950C945C0036
:100040001895189518951895189518951895189548
:10005000189518950401A000000009B908E90AB92B
:1000600000E000932101009320010093A30100937D
:10007000A2010895FA93EA935A934A933A932A93E2
:100080001A930A933FB71CB10091200103950F7793
:100090000093200120912101402F50E0FA01E05609
:1000A000FF4F10833FBF09911991299139914991CF
:1000B0005991E991F9911895FA93EA932A931A9331
:1000C0000A932FB70091A2011091A3010117A1F08B
:1000D0000091A30103950F770093A30110E0F801AD
:1000E000EE5DFE4F108110951BBB10E0F801EE5D38
:1000F000FE4F00810CB901C055982FBF099119918D
:100100002991E991F991189500912001109121010F
:100110000117D1F30091210103950F77009321017D
:1001200010E0F801E056FF4F008108952091A201F0
:1001300023952F771091A3012117E1F330E0F90106
:10014000EE5DFE4F00832093A201559A08950FEFB4
:100150000ABB0FEF0BBB07E180DF7894D5DFE6DF4A
:10016000FDCF00EA03500DBF00E000400EBFC0E825
:10017000D0E00E94C700002311F00E94D50000E0EB
:100180000BBF0E94A7000E94EF000C94EF0001E05B
:10019000089520E02D9301501040D9F7089525913E
:1001A0002D9301501040D9F7089584E590E0FC01AB
:1001B00005911491FC013296A591B491FC013496FD
:1001C00025913491422F432B19F0F901E8DF01C04A
:1001D000E0DF069610E08A35910748F308950000A5
:0401E0008895FECF31
:00000001FF
