:100000000C94EF0018951895189518951895189553
:100010001895189518951895189518951895189578
:100020001895189518951895189518951895189568
:10003000189518950C944100189518950C94730018
:100040001895189518951895189518951895189548
:10005000189518950500A00024050401A5000000CE
:100060002FEF2ABB0BBB089509B908E90AB900E0D4
:1000700000932601009325010093A8010093A70196
:1000800008958A93FA93EA933A922A921A920A92DC
:100090007A936A935A934A933A932A931A930A93B8
:1000A0008FB70F921CB10091250103950F77009334
:1000B000250120912601402F50E0FA01EB55FF4F1A
:1000C00010830F908FBF099119912991399149910E
:1000D0005991699179910990199029903990E991F4
:1000E000F991899118958A93FA93EA933A922A9210
:1000F0001A920A927A936A935A934A933A932A935A
:100100001A930A938FB70F920091A7011091A8013B
:10011000011769F00091A80103950F770093A801DA
:1001200010E0F801E95DFE4F00810CB901C055985F
:100130000F908FBF09911991299139914991599146
:10014000699179910990199029903990E991F991E3
:100150008991189500912501109126010117D1F37D
:100160000091260103950F770093260110E0F80116
:10017000EB55FF4F008108952091A70123952F771C
:100180001091A8012117E1F330E0F901E95DFE4F7C
:1001900000832093A701559A0895BA93AA932397B1
:1001A00001E010E009831A83A0EAB0E007E15CDF18
:1001B0007894D0DF088308810C93088110E00983CC
:1001C0001A830881D9DF088110E01A930A9302EAA2
:1001D00010E00E945801229609831A83EACF00EAB0
:1001E00003500DBF00E000400EBFC0E8D0E00E9409
:1001F0005301002311F00E94730100E00BBF0E9425
:10020000CD000E948D010C948D0100241124222424
:100210003324E0E2EA9592F0001F111F221F331FE2
:10022000001C111C221C331C04161506260637065A
:1002300088F3041A150A260A370AECCF001F111F8B
:10024000221F331F402D512D622D732D00951095C7
:10025000209530950895FA92EA92DA92CA92BA926B
:10026000AA929A928A927A926A925A924A92BA93ED
:10027000AA939A938A930895FF84EE84DD84CC84B4
:10028000BB84AA84998488847F806E805D804C8042
:10029000BB81AA8199818881F0E00FB6F894CE0FD6
:1002A000DF1F0FBE089501E0089510E00C943000A8
:1002B00022979E012E5F3F4F28833983BE0140E085
:1002C00050E025E531E00E9490012296089520E05B
:1002D0002D9301501040D9F7089525912D93015089
:1002E0001040D9F7089584E590E0FC010591149140
:1002F000FC013296A591B491FC013496259134917C
:10030000422F432B19F0F901E8DF01C0E0DF069628
:1003100010E08036910748F3089500008895FECFDD
:100320000E942B012697088319832A833B834C83E1
:100330005D834B01CC24DD2401C0C4D0C7D005E2CD
:10034000A01639F0AA20C9F786012696E0E10C94A0
:100350003C0110E000E02081285621F0245041F4B7
:1003600001E001C011E09F012F5F3F4F28833983D7
:10037000ADD02A2D285509F46DC02B5059F02A957F
:1003800009F458C02B50E1F0245061F0255009F4D5
:1003900061C0D3CFD401ED91FC91A190B190FC93B9
:1003A000EE93CBCFD401ED91FC9181919191FC938F
:1003B000EE93FC01A190CF01AA2001F283D0F9CFE6
:1003C00028E094D011F4002379F5442420E8522E3B
:1003D00066247724112309F44CC07ED009F046C06E
:1003E000A92FAA0FAA0BBA2F04E6A01669F4BB2303
:1003F0005AF49095A095B09581959F4FAF4FBF4F00
:100400002C813D810DE276D002E0401600E05006DE
:100410006006700608F44CC084159505A605B7055E
:1004200008F046C06FD0F0CF44245524662400E481
:10043000702E21C02AE05AD011F4002321F420E1CB
:10044000422E27E2C4CF44240AEC502E0AE9602E43
:100450000BE3EECF20E14AD011F4002311F4442441
:10046000B6CF44245524662400E1E2CFA0E0B0E0FA
:10047000CBCF002361F0F401A081B1810D911D91DA
:100480002D913D91A083B183C801D901ADCF24D076
:1004900069F7A6CF495F2C813D81042F2BD03CD03A
:1004A000CA01DB012FD0012B022B032B09F446CF0D
:1004B00033D0402F405D4A3370F308E7A01651F760
:1004C000495DE9CF2C813D810A2D14C0E881F98175
:1004D000A190E883F983089504E6A016F401A081B1
:1004E000B1818D919D91A083B1830895E22EFF2467
:1004F00011230895EA81FB81099501E0C00E00E017
:10050000D01E089582019301A70160E070E00E946F
:1005100005012801390108958C019D01A201B30153
:090520000C940501200025630084
:00000001FF
