:100000000C943C04189518950C94B2031895189507
:100010001895189518951895189518951895189578
:100020001895189518951895189518951895189568
:10003000189518950C943000189518950C946B022F
:10004000189518950C948B01189518951895189576
:10005000189518953F00A20000000200A000A80912
:10006000BA93AA939A938A93FA93EA931A920A926A
:100070006A935A934A933A932A931A930A936FB7BF
:100080002B9700E009830BB10071088308810023DE
:1000900099F001E00093BF000983E6EAF0E00081F7
:1000A00011810130104041F4E8EAF0E0028113814F
:1000B0000F5F1F4F028313830BB108700883088101
:1000C0000023A1F002E00093BF0001E00983E6EA0B
:1000D000F0E0008111810130104041F4E8EAF0E0E5
:1000E000048115810F5F1F4F048315830CB10C83AE
:1000F00000E0519903950B83A4EAB0E0ED91FC91E7
:10010000319719F0319709F0BDC001E010E00D837F
:100110001E8319871A8718C00C812D813E812023E8
:1001200028830881002331F009851A850F5F1F4F4E
:1001300009871A870D811E81000F111F0D831E83F1
:100140000F8118850F5F1F4F0F8318878F81988548
:10015000893090400CF309851A8542E050E00E94F6
:100160006D0448830881013009F5E4EAF0E000817C
:10017000118101301040D1F401E00A830A811B8112
:100180000117A1F001E0098303E00093BF00E6EA54
:10019000F0E0008111810130104041F4E8EAF0E024
:1001A000068117810F5F1F4F068317830881013077
:1001B00009F5E4EAF0E000811181023000E010402E
:1001C000C9F40A830A811B810117A1F001E00983A8
:1001D00003E00093BF00E6EAF0E000811181013006
:1001E000104041F4E8EAF0E0068117810F5F1F4FED
:1001F000068317830881002309F5E4EAF0E0008113
:100200001181013000E01040C9F40A830A811B818A
:100210000117A1F001E0098303E00093BF00E6EAC3
:10022000F0E0008111810130104041F4E8EAF0E093
:10023000068117810F5F1F4F0683178308810023F4
:1002400009F5E4EAF0E00081118102301040D1F4B8
:1002500001E00A830A811B810117A1F001E00983F3
:1002600003E00093BF00E6EAF0E000811181013075
:10027000104041F4E8EAF0E0068117810F5F1F4F5C
:10028000068317830091C0000F30A0F001E00983BE
:1002900004E00093BF00E6EAF0E000811181013044
:1002A000104041F4E8EAF0E0008511850F5F1F4F30
:1002B0000087118709810023E1F400E00093BF006B
:1002C0002C810091C00010E0F801EF53FF4F208314
:1002D000E0ECF0E0008103950083EFE0F0E00091B6
:1002E000C000E01BF040339724F415B301E0012770
:1002F00005BB2B966FBF09911991299139914991AD
:100300005991699109901990E991F991899199917F
:10031000A991B9911895BA93AA939A938A93FA934B
:10032000EA931A920A926A935A934A933A932A93B7
:100330001A930A936FB72A9700E009830A830B8305
:100340000091D000002311F400E001C001E0098316
:1003500005B3077F08830881002311F400E001C082
:1003600001E00A8305B30D7F08830881002311F49F
:1003700000E001C001E00B8300E008830981013047
:1003800019F408810C5F08830A81013019F408818F
:100390000E5F08830B81013019F4088103950883EF
:1003A00008810BBB0881045010F019F082C05698E8
:1003B00080C00091D00010E001501040F801EF52D1
:1003C000FF4F00810983E0EDF0E000810A95008392
:1003D000A4EAB0E0ED91FC91319719F03197B1F1B9
:1003E00066C001E010E00C831D831887198718C0D0
:1003F00009812C813D81202328830881002331F04D
:10040000088519850F5F1F4F088719870C811D818B
:10041000000F111F0C831D830E811F810F5F1F4F63
:100420000E831F838E819F81893090400CF3088555
:10043000198542E050E00E946D0448830881002342
:10044000A9F11AB101E001270AB931C001E010E0B9
:100450000C831D831887198718C009812C813D8161
:10046000202328830881002331F0088519850F5F38
:100470001F4F088719870C811D81000F111F0C83E6
:100480001D830E811F810F5F1F4F0E831F838E817F
:100490009F81893090400CF30885198542E050E037
:1004A0000E946D0448830881002359F25098098105
:1004B0000CB92A966FBF09911991299139914991E7
:1004C0005991699109901990E991F99189919991BE
:1004D000A991B9911895FA93EA932A931A930A93DA
:1004E0002FB7E2EAF0E0008111810BBB008111819E
:1004F0000F5F1F4F0083118304E30CB92FBF0991D5
:1005000019912991E991F9911895BA93AA939A931F
:100510008A932897C901DA0100E20BB902E00AB90F
:100520000CB1088314B305E001270883088104BBDC
:1005300015B305E001270883088105BB01E010E041
:100540000EC000E02A813B81220F331FF901E855DC
:10055000FF4F008301830A811B810F5F1F4F0A83B6
:100560001B830A811B810530104058F301E0098389
:100570000BB102700883FC01E050F649C1F0E05075
:10058000FB44A9F0EC52F04291F0EC52F14079F0CA
:10059000E855F24061F0E05BF44049F0E056F94084
:1005A00031F0E05CF24119F0E058F54231F5088194
:1005B000002300E0F9F414E823E030E0AC0160E04F
:1005C00070E00E94810401501040204030400C83B4
:1005D0001D832E833F830C811D812E813F8109B9AC
:1005E0000C810D812E813F8140B5407F0F70042B1F
:1005F00000BD05C018E027E0E0CF00E009830981D5
:10060000013021F4E0EAF0E08083918301E0098386
:10061000FD01309629F0319751F0319741F00EC02D
:100620000AB108830A7F088308810AB909C00AB1A0
:10063000088305E0188110271883F6CF00E00983AE
:100640000981013021F4E4EAF0E0A083B1831AB11A
:1006500008ED01270AB905B30A7F05BB28968991E1
:100660009991A991B991089520E22BB922E02AB974
:1006700020B5207F20BD20E029B92CB1F8012083CE
:100680000895E1ECF0E00FE01FEF119310E01093FC
:10069000C0000A95C9F708950091C000002329F40D
:1006A00001E010E01093C000089500E00895EFE02D
:1006B000F0E02091C000E21BF04033970CF0A898C6
:1006C0001091C000112371F00091C00010E00150A2
:1006D0001040F801EF53FF4F0081E0ECF0E0108193
:1006E0001A9510830895E1EDF0E00FE01FEF1193EC
:1006F00010E01093D0000A95C9F70895569800911C
:10070000D0000F30F0F40091D00010E0F801EF526B
:10071000FF4F2083E0EDF0E000810395008300911E
:10072000D000013031F400810A9500832CB956982D
:1007300008950091D000002321F01AB100E40127B0
:100740000AB9089556980091D0000F3028F001E0C2
:100750001FE01093D000089500E02AB110E41227A2
:100760001AB90895FA93EA931A930A93ECEBF0E01E
:10077000008111810BBB01E00093E0000991199108
:10078000E991F9911895229700E309838E016CDFB6
:100790008E0177DF8E01A7DFE4EAF0E0408151812E
:1007A000E0EAF0E0208131818E01AFDE0FEF0ABB7D
:1007B0001BB700E80127098309810BBF12B308E0CA
:1007C000012702BB05E50BBB1BB100E401270BB9F8
:1007D000789440C0E2EBF0E0008511850F5F1F4F79
:1007E000008711870091E0000130A1F58E01AADF9A
:1007F000013019F022E58E0181DF8E01A3DF013087
:1008000019F021E38E017ADF8E019CDF013019F0AF
:100810002DE38E0173DF8E0195DF013051F0E8EAA0
:10082000F0E0028103810093BE002091BE008E01A2
:1008300065DF8E0187DF013051F0E8EAF0E00281E8
:1008400013810093BE002091BE008E0157DF00E0AF
:100850000093E0008E0120DF013021F08E0127DFC0
:100860000093BE008E016EDF013009F4B3CF2091FA
:10087000BE008E0143DFB6CF00EA03500DBF00E09B
:1008800000400EBFC0E8D0E00E94A704002311F092
:100890000E94B50400E00BBF0E94C3030E945204F3
:1008A0000C94CF040C94CF0400241124EFE0001F1B
:1008B000111F001C111C0416150610F0041A150A4D
:1008C000EA95AAF7001F111F402D512D0095109594
:1008D00008955195419550400895FF27552312F4EE
:1008E000F160F7DF112312F4F09507D00E94540451
:1008F000F0FD03D0F1FDEDCF089511950195104065
:1009000008950024112422243324E0E2EA9592F091
:10091000001F111F221F331F001C111C221C331C1F
:10092000041615062606370688F3041A150A260A41
:10093000370AECCF001F111F221F331F402D512DEE
:10094000622D732D0095109520953095089501E046
:10095000089520E02D9301501040D9F70895259176
:100960002D9301501040D9F7089584E590E0FC01E3
:1009700005911491FC013296A591B491FC01349635
:1009800025913491422F432B19F0F901E8DF01C082
:10099000E0DF069610E08036910748F308950C9446
:0A09A000D20400008895FECF8025E8
:00000001FF
