:100000000C947E0D189518951895189518951895B7
:100010001895189518951895189518951895189578
:100020001895189518951895189518951895189568
:10003000189518950C943B0B189518950C94950CE5
:100040001895189518951895189518951895189548
:10005000189518950153796E746178204572726F06
:10006000723A202031000000000000000000000073
:10007000000000000000000000000000008EE8A862
:10008000A1AAA020E1A8ADE2A0AAE1A8E1A03A209F
:10009000203100000000000000000000000000000F
:1000A000000000000062030253796E7461782045FD
:1000B00072726F723A2020320000000000000000CF
:1000C0000000000000000000000000000000000030
:1000D0008EE8A8A1AAA020E1A8ADE2A0AAE1A8E12B
:1000E000A03A2020320000000000000000000000C4
:1000F000000000000000000062030353796E746189
:1001000078204572726F723A2020330000000000A0
:1001100000000000000000000000000000000000DF
:100120000000008EE8A8A1AAA020E1A8ADE2A0AA44
:10013000E1A8E1A03A202033000000000000000008
:10014000000000000000000000000062030453797A
:100150006E746178204572726F723A20203400000C
:10016000000000000000000000000000000000008F
:100170000000000000008EE8A8A1AAA020E1A8AD20
:10018000E2A0AAE1A8E1A03A20203400000000008B
:1001900000000000000000000000000000006203FA
:1001A0000553796E746178204572726F723A20201F
:1001B000350000000000000000000000000000000A
:1001C0000000000000000000008EE8A8A1AAA02006
:1001D000E1A8ADE2A0AAE1A8E1A03A202035000004
:1001E000000000000000000000000000000000000F
:1001F0000062030653796E746178204572726F72E3
:100200003A2020360000000000000000000000003E
:100210000000000000000000000000008EE8A8A11F
:10022000AAA020E1A8ADE2A0AAE1A8E1A03A20207E
:100230003600000000000000000000000000000088
:100240000000000062030753796E746178204572E4
:10025000726F723A2020370000000000000000009A
:100260000000000000000000000000000000008E00
:10027000E8A8A1AAA020E1A8ADE2A0AAE1A8E1A077
:100280003A202037000000000000000000000000BD
:10029000000000000000006203FE4572726F7220D1
:1002A000636F756E74657220706172616D657465DF
:1002B00072733A2032353400000000000000000064
:1002C00000008EE8A8A1AAA020A220AAAEABA8E7B1
:1002D000A5E1E2A2A520AFA0E0A0ACA5E2E0AEA21D
:1002E0003A2032353400000000006203FF46756E8C
:1002F0006374696F6E206E6F7420666F756E643AFA
:100300002032353500000000000000000000000031
:10031000000000000094E3ADAAE6A8A820ADA5E285
:1003200020A220E1ABAEA2A0E0A53A2032353500F4
:1003300000000000000000000000000000620378E0
:1003400000000000000000000000000000000000AD
:100350000000000146756374696F6E2064697370F4
:100360006C617920580000000000000000000000CF
:100370000000000000000000000000007900000004
:10038000000000000000000000000000000000006D
:100390000146756374696F6E20646973706C61796E
:1003A00020590000000000000000000000000000D4
:1003B0000000000000000000007A000000000000C3
:1003C0000000000000000000000000000001467571
:1003D0006374696F6E20646973706C6179205A0070
:1003E000000000000000000000000000000000000D
:1003F0000000000000006C69737400000000000041
:10040000000000000000000000000046756E6374EC
:10041000696F6E206C6973742066756E6374696FA2
:100420006E730000000000000000000000000000EB
:100430000000007669657700000000000000000001
:10044000000000000000000146756374696F6E20B3
:1004500076696577000000000000000000000000E1
:10046000000000000000000000000000000000008C
:100470007072696E7400000000000000000000004F
:10048000000000000246756E6374696F6E20707222
:10049000696E740000000000000000000000000011
:1004A00000000000000000000000000000802500A7
:1004B000000001000101010101010101111301000E
:1004C00001000100001800202020202020202020F2
:1004D00028282828282020202020202020202020F4
:1004E0002020202020202088101010101010101024
:1004F0001010101010101004040404040404040468
:1005000004101010101010104141414141410101EF
:1005100001010101010101010101010101010101CB
:1005200001011010101010104242424242420202D9
:10053000020202020202020202020202020202029B
:100540000202101010102013015001A61F35016384
:03055000020000A6
:100554001127222717E0079508F420951A951123EF
:10056400D1F7022F08951127222718E0079508F4E0
:1005740020951A951123D1F7022F08950BD0C801A5
:100584000E942A0B8C018991999108956A925A923A
:100594004A920DD09A938A93089504D04990599021
:1005A4006990089589919991A991B9910895BA93FF
:1005B400AA9308950C94180BFADFD80103C00D9187
:1005C40010E0DCDF0C910023D1F7A991B9910895D3
:1005D400EEDF0FC00AE05DD073D089010F5F1F4FBB
:1005E40064D00AE010E0CADF00E053D010E068D025
:1005F4005CD057D05DD0002359F062D000819801BF
:100604005CD02083318354D010E0A991B99108952E
:1006140000E056D0008301830AC043D0012B39F097
:1006240000810150104041D007E511E0C5DFC2DF71
:100634000A3159F445D020813181232BC1F400E5DE
:1006440011E0BADF0FEF1FEFE0CF0F3731F30830BF
:1006540021F427D0012B59F3E3CF033029F403E528
:1006640011E0AADF07E2C2CF0D3009F4B3CFABE843
:10067400B2E0ED91FC91B69754F40032C0F209D087
:100684001FD01BD02083318310E078DFD0CF07E068
:10069400FBCF16D020813181F901ED59FD4F008344
:1006A40008950ED000811181089500831183089567
:1006B400F801ED59FD4F008108952F5F3F4F0895D4
:1006C400EBE8F2E00895F80101C03196208122237D
:1006D400E1F7E01BF10B8F0108955BDFD80180E0A7
:1006E40090E065DF0BE511E009D002C00196119698
:1006F400FD0104910023D1F78C0154CF0E94000E18
:10070400229608955B2F4A2FF801D90101C0319632
:1007140020812223E1F72D9121932223E1F7A42FB5
:10072400B52F0895F8014081421729F041918F01B6
:100734004423C1F701D0089500E010E008955B2F31
:100744004A2FF80101C0B9DF0081D9011C910117BA
:1007540029F401910023B9F7EFDF02C0008103D02F
:10076400A42FB52F089510E0F9012081021B104039
:1007740008959A928A920ADF2997D801490166243A
:100784000E947D0E2801012B11F4639484C091D042
:100794000A5F1F4F0E94F40D89D020E030E080E012
:1007A40090E08D011DC0F8014081483219F040816C
:1007B400493299F4F901EE0FFF1FEC0FFD1F8083FE
:1007C4009183233040E034078CF4F8015081FE011A
:1007D4003696E20FF31F508370DF01960F5F1F4FB1
:1007E4008415950504F32230304019F003E0602E9F
:1007F40052C02EE531E08E010A5F1F4FA0DF012BAE
:1008040011F004E0F4CF8D015EDF015010402A8125
:100814003B810217130749F007E0602E0A811B8110
:100824000F5F1F4F0883198336C007EC14E0EC9167
:10083400F0E0E00FF11F0491037049F40C910F35BF
:1008440031F034D000E00883098305E0D0CF81E0A3
:1008540090E01196FD0102C001963196088119813C
:1008640080179107C4F40081005281F0025071F0A6
:10087400055061F0035051F0025041F0025031F044
:100884000A9521F00D5211F0005231F706E0602E66
:100894000DD08883998308811981F40106DF062D20
:1008A40010E029967ADE89909990089502D00C94EC
:1008B400F40D43E050E020E030E08E010895DA9238
:1008C400CA92BA92AA929A928A927A925FDEC801E6
:1008D4005901DA016B0121E631E00E949E0E5ADED5
:1008E40004E611E00BDF5AD04424552403C000E28F
:1008F4004FD058D0FD010081118140165106BCF340
:100904000EE546D019DFA4E5B0E029E0722EFD0122
:10091400249130E02A153B05D1F440D04C012D013F
:1009240041D008E2602EFD01EF5AFF4F059114916A
:100934000C151D05F20109F4B8960491F401008325
:1009440001914F0125D02ED06A9469F727D0AD5A72
:10095400BF4F7A94E1F6012B91F40CE611E00E946A
:10096400000EBA92AA9200E811E0C8DE03E811E092
:100974000E94000E25E831E08C010E94400E0DDE3D
:10098400799089909990A990B990C990D990089537
:1009940010E01A930A9309E611E0B0CE01E611E0E3
:1009A4000C94000E01E0400E00E0501E08950E94D9
:1009B400D00D299780E090E001E0009319030E9494
:1009C4000F0A00E011EE0E948E09789401E412E00F
:1009D4000E94000EEFE1F3E00083118300E010E0D9
:1009E40020E030E00D831E832F83388700E010E081
:1009F4000883198300E000931C0327E332E008EB2B
:100A040012E00E94400EEFE1F3E0008311832AE13B
:100A140033E008EB12E00E94BB03EFE1F3E0008354
:100A2400118362E673E04AE153E0EFE1F3E02081F1
:100A3400318108EB12E00E94610427E332E008EB05
:100A440012E00E94400EEFE1F3E0008311832AE1FB
:100A540033E008EB12E00E94BB03EFE1F3E0008314
:100A6400118362E673E04AE153E0EFE1F3E02081B1
:100A7400318108EB12E00E9461042CE232E008EBC1
:100A840012E00E94400EEFE1F3E0008311832AE1BB
:100A940033E008EB12E00E94BB03EFE1F3E00083D4
:100AA400118362E673E04AE153E0EFE1F3E0208171
:100AB400318108EB12E00E94610420E232E008EB8D
:100AC40012E00E94400EEFE1F3E0008311832AE17B
:100AD40033E008EB12E00E94BB03EFE1F3E0008394
:100AE400118362E673E04AE153E0EFE1F3E0208131
:100AF400318108EB12E00E94610427E132E008EB47
:100B040012E00E94400EEFE1F3E0008311832AE13A
:100B140033E008EB12E00E94BB03EFE1F3E0008353
:100B2400118362E673E04AE153E0EFE1F3E02081F0
:100B3400318108EB12E00E94610406EF11E00E948B
:100B4400000EEFE1F3E000831183E3E5F3E00491A9
:100B540000931C0300911C0300931C0300E010E0AD
:100B64000883198313C0088119812CE733E0E881D5
:100B7400F981E20FF31F2491F801E854FD4F20831B
:100B8400088119810F5F1F4F088319838881998118
:100B94008431904040F300E010E00883198313C0CF
:100BA4000881198121E933E0E881F981E20FF31F1B
:100BB4002491F801E854FD4F2083088119810F5FC7
:100BC4001F4F08831983888199818832904040F3AC
:100BD40000E00093B70200E010E0088319830DC021
:100BE40000E028813981F901E854FD4F0083088130
:100BF40019810F5F1F4F0883198388819981883277
:100C0400904070F308EB12E00E946503EFE1F3E01B
:100C14000083118328E230E008EB12E00E94940381
:100C2400D8010C9110E0EFE1F3E0008311832DE88B
:100C340032E008EB12E00E948403D80128EB32E092
:100C44000DE812E00E945B0ED8012DE832E008EBBB
:100C540012E00E94A103EFE1F3E0008311830FC0CF
:100C640000E010E0EAE1F3E00083118362E673E060
:100C74004AE153E09C0108EB12E00E94610400E0A9
:100C84000093B70248E250E020E030E00DE812E0C3
:100C94000E94F40D48E250E020E030E008EB12E05E
:100CA4000E94F40D00911903013069F40EE310E081
:100CB4001A930A9302EF11E00E94000E2296EFE1CC
:100CC400F3E0008311830E94EA02EDE1F3E0008384
:100CD4001183EDE1F3E0008111812091B70230E04E
:100CE400F901E357FD4F0083E7EBF2E00081039540
:100CF40000830091B702083228F0E7EBF2E00081AC
:100D04000A950083EDE1F3E0008111810A3000E0EF
:100D1400100741F400EF11E00E94000EEFE1F3E050
:100D240000831183EDE1F3E0008111810A3000E0DA
:100D3400100749F62DE832E008EB12E00E945B0E42
:100D4400D8012DEE31E008EB12E00E949E0ED8018E
:100D54002AE133E008EB12E00E94BB03C8018130B2
:100D640000E09007CCF000911903013051F462E6E1
:100D740073E04AE153E09C0108EB12E00E94610435
:100D84000BC09A938A930AEE11E00E94000E2296F9
:100D9400EFE1F3E000831183082F092B09F06FCFF3
:100DA40008EB12E00E946503EFE1F3E00083118396
:100DB40000E010E00A831B8300E010E0088319833D
:100DC40014C008811981F801E854FD4F00810C32E8
:100DD40031F40A811B810F5F1F4F0A831B83088133
:100DE40019810F5F1F4F08831983EFE1F3E000813E
:100DF4001181288139810217130718F700E010E0E8
:100E0400EFE1F3E00083118326EE31E008EB12E01A
:100E14000E949E0ED80100E010E00883198308C0E8
:100E24008FEF90E0088119810F5F1F4F08831983AA
:100E3400088119810630104008F059C080E090E024
:100E440000E010E00A831B8322C02A813B810881D1
:100E54001981F901E854FD4F60802FE3822E23E0CD
:100E6400922E4DE350E00E94940D080D191DEA8165
:100E7400FB81E00FF11F0491601619F0816001E01D
:100E840010E00A811B810F5F1F4F0A831B830A81B5
:100E94001B810431104028F5088119812FE3622E4B
:100EA40023E0722E4DE350E00E94940D060D171DB1
:100EB400EA81FB81E00FF11F0491002331F60A81DE
:100EC4001B81012B19F4816001E010E00A811B8170
:100ED400F801E854FD4F0081002319F0816001E01E
:100EE40010E0082F092B09F09BCF488059808F3FD1
:100EF40000E0900789F400911903013009F4B0CEA1
:100F04009A938A930AEE11E00E94000E2296EFE172
:100F1400F3E000831183B3CE00E010E00A831B8367
:100F240000E010E00883198311C066240881198148
:100F34004BE050E00E94940DF801EE51FD4F6082A9
:100F4400088119810F5F1F4F088319830881198154
:100F54000530104050F300E010E00883198329C0E5
:100F640068807980088119814BE050E00E94940DDB
:100F7400F801EE51FD4F60829D01D90103EE602E10
:100F840002E0702E088119814BE050E00E94940D1C
:100F9400060D171D9D010E945B0E2A813B812F5F68
:100FA4003F4F2A833B83288139812F5F3F4F28831A
:100FB4003983088119810530104050F422EE31E064
:100FC40000E010E00E949E0ED8010A2F0B2B41F680
:100FD40003E5602E03E0702E82014DE350E00E9491
:100FE400940D060D171DF801249130E00A811B8130
:100FF40010E0201B310B19F40A2F0B2B11F08EEF8C
:1010040090E0AB2B49F022EE31E000E010E00E94CA
:101014009E0ED801AB2BB9F78E3F00E0900711F577
:1010240000911903013091F4EAE1F3E000811181A8
:101034000F5F1F4F0083118362E673E04AE153E0C0
:101044009C010DE812E00E94610419CE9A938A93E0
:101054000AEE11E00E94000E2296EFE1F3E0008315
:1010640011830DCE082F092B09F0CECEF201309654
:1010740029F0319741F0329759F0B4C00FEF0ABB11
:1010840000E00BBBAFC00FEF0ABB0FEF0BBBAAC056
:1010940001EB11E00E94000EEFE1F3E00083118305
:1010A40000E010E00883198340C008811981AFE390
:1010B400B3E04DE350E00E94940D0A0F1B1F0B5E3A
:1010C4001F4FEA81FB81E00FF11F049110E01A9396
:1010D4000A930AEA11E00E94000E2296EFE1F3E07F
:1010E400008311830A811B810F5F1F4F0A831B83B7
:1010F400AA81BB81549798F408811981AFE3B3E0C6
:101104004DE350E00E94940D0A0F1B1F0B5E1F4F0E
:10111400EA81FB81E00FF11F0491002331F608817D
:1011240019810F5F1F4F08831983A881B98116970E
:1011340008F050C00DEA11E00E94000EEFE1F3E068
:101144000083118300E010E00A831B8321C008811F
:101154001981AFE3B3E04DE350E00E94940D0A0F10
:101164001B1FEA81FB81E00FF11F049110E01A9329
:101174000A930AEA11E00E94000E2296EFE1F3E0DE
:10118400008311830A811B810F5F1F4F0A831B8316
:10119400AA81BB81549788F408811981AFE3B3E035
:1011A4004DE350E00E94940D0A0F1B1FEA81FB815E
:1011B400E00FF11F0491002351F604EA11E00E94AC
:1011C400000EEFE1F3E00083118300E010E00A83F6
:1011D4001B838ECF0DE911E00E94000EEFE1F3E0D6
:1011E4000083118300911903013049F407E911E0E8
:1011F4000E94000EEFE1F3E00083118340CD9A9347
:101204008A930AEE11E00E94000E2296EFE1F3E0C9
:101214000083118334CD539A549A579A089553985E
:10122400549857980895EDEAF4E005911491319794
:10123400E2E2F3E000831183EFEAF4E00491009327
:101244002403E0EBF4E0049100932503E1EBF4E0E4
:10125400049100932603E2EBF4E004910093270346
:10126400E3EBF4E0049100932803E4EBF4E004914D
:1012740000932903E5EBF4E0049100932A03E6EBE1
:10128400F4E0049100932B03E7EBF4E00491009362
:101294002C03E8EBF4E0049100932D03E9EBF4E074
:1012A400049100932E03EAEBF4E0049100932F03DE
:1012B400EBEBF4E0049100933003ECEBF4E00491E5
:1012C40000933103EDEBF4E0049100933203EEEB71
:1012D400F4E0049100933303EFEBF4E00491009302
:1012E4003603E0ECF4E0049100933503E1ECF4E020
:1012F400049100933403E2ECF4E004910093370387
:10130400E3ECF4E0049100933803E4ECF4E004919A
:1013140000933903089508950E94D70D2697C801B4
:101324007EDF01E009830BB102700883FC01E05009
:10133400F649C9F0E050FB44B1F0EC52F04299F0A8
:10134400EC52F14081F0E855F24069F0E05BF44082
:1013540051F0E056F94039F0E05CF24121F0E058F8
:10136400F54209F053C00881002331F500E018E08C
:1013740027E030E0AC0160E070E00E94A40D015071
:101384001040204030400A831B832C833D830A8114
:101394001B812C813D8109B90A811B812C813D81EE
:1013A400A0B5A07F40E051E060E070E00E94A40D91
:1013B4000F700A2B00BD25C000E010E12EE030E0E4
:1013C400AC0160E070E00E94A40D01501040204088
:1013D40030400A831B832C833D830A811B812C812B
:1013E4003D8109B90A811B812C813D81A0B5A07F73
:1013F40040E051E060E070E00E94A40D0F700A2B01
:1014040000BDE2E2F3E08083918302C000E009833F
:1014140002DF2696E3E00C94E80D9A938A932397CF
:1014240014B305E001270A830A8104BB15B305E060
:1014340001270A830A8105BB02E00AB90CB10A83B9
:1014440000E20BB900B5007F00BD00E009B901E07E
:1014540010E0088319830DC000E028813981F90167
:10146400E45AFC4F0083088119810F5F1F4F0883E2
:101474001983888199818132904074F300E000934C
:101484007C0300E000937D0301E010E008831983EE
:101494000DC000E028813981F901E65CFC4F00832E
:1014A400088119810F5F1F4F0883198388819981EF
:1014B4008132904074F300E000935A0300E00093FB
:1014C4005B0301E010E00883198313C080E090E01F
:1014D4000881198142E050E00E94940DF801E2581D
:1014E400FC4F80839183088119810F5F1F4F08830C
:1014F4001983888199818630904044F300E010E09C
:1015040020E030E0E8E8F3E00083118322833383B2
:1015140000E010E020E030E0E0E9F3E00083118334
:101524002283338300E010E020E030E0ECE8F3E0D5
:10153400008311832283338300E010E020E030E055
:10154400E4E9F3E0008311832283338300E010E0B5
:10155400E2E2F3E00083118300E00093240300E05F
:101564000093250300E00093260301E00093270382
:1015740000E00093280300E00093290301E00093B6
:101584002A0300E000932B0301E000932C0300E006
:1015940000932D0301E000932E0300E000932F033A
:1015A40001E00093300300E00093330300E0009374
:1015B400360300E00093350300E00093340300E0B9
:1015C4000093370300E00093380300E00093210305
:1015D40000915F020A9519F00A9519F003C09BDE89
:1015E40001C021DE01E000932103E2E2F3E0008187
:1015F400118192DE02E00093210303E000932103B2
:10160400239689919991089520913903222369F0B1
:1016140042E050E00E94940DF801E258FC4F008132
:1016240011810F5F1F4F00831183089500915A03A6
:1016340010915B030117D1F300915B0303950F71C4
:1016440000935B0310E0F801E65CFC4F0081089511
:1016540020917C0323952F7110917D032117E1F3D1
:1016640030E0F901E45AFC4F008320937C03559A3F
:101674000895BA93AA939A938A93FA93EA933A921F
:101684002A921A920A927A936A935A934A933A93B1
:101694002A931A930A93BFB7239700912803005003
:1016A40041F0009129030A9521F48C9A00912A03B0
:1016B400949A009128030050C9F000912B030A95D5
:1016C40049F48E9800B30074000F07FB000B00F977
:1016D40000932C0300912F030A9541F48B9800B3D7
:1016E40008700595059505950093300300E008837F
:1016F4005C9B05C001E0088301E010E085DFACB12C
:10170400589B05C001E0088302E010E07DDF0091F2
:101714002703005019F00A9561F012C00A2F0E94A5
:10172400AA02902F8A2F8078082F000F80E0881F4C
:1017340007C00A2F0E94B502902F8AB18270859546
:10174400009126030A9539F00A9571F00A95B1F0D3
:101754000A95E1F022C091708917F9F001E008833D
:1017640003E010E051DF19C0909591708917A9F03A
:1017740001E0088303E010E047DF0FC0813069F027
:1017840001E0088303E010E03FDF07C0882329F06D
:1017940001E0088303E010E037DF0881002309F04B
:1017A4009BC080915A0383958F7100915B038017CE
:1017B40021F404E010E028DF02C080935A03009172
:1017C40028030A9509F051C000915A030D3150F0D5
:1017D40000912D030A9579F48D9A959A01E000936E
:1017E4002E0309C000912D030A9529F48D9A95982A
:1017F40000E000932E03009135030A95B1F50091A2
:101804005A030D3140F100913403005039F0015076
:10181400D8F0045060F0005081F016C000913203FB
:1018240017DFE4E3F3E00081039500831EC0E4E3E3
:10183400F3E000810395008318C00091320308DFB0
:1018440001E00093340311C00091320301DF01E091
:10185400009334030AC000913403005031F0009126
:101864003103F6DE00E00093340308810023D9F449
:1018740090E0FC01E65CFC4FA083009128030A95EC
:1018840091F4009133030A9571F400913203A01787
:1018940019F401E00093360300913103A01719F401
:1018A40000E00093360300913703013011F40A2F4E
:1018B400CFDE00913903013009F5E8E8F3E0008157
:1018C4001181228133810F5F1F4F2F4F3F4F0083C0
:1018D40011832283338312C000913903013071F4E0
:1018E400ECE8F3E000811181228133810F5F1F4F07
:1018F4002F4F3F4F00831183228333832396BFBF2F
:101904000991199129913991499159916991799143
:101914000990199029903990E991F99189919991B7
:10192400A991B99118959A938A93FA93EA933A9262
:101934002A921A920A927A936A935A934A933A93FE
:101944002A931A930A939FB701E0109128031A95DA
:1019540041F4109129031A9521F48C9A10912A03C9
:10196400949A109128031A9541F410912D031A9515
:1019740021F48D9A10912E03959A109128031A95AB
:10198400C9F410912B031A9549F48E9810B310746E
:10199400110F17FB110B10F910932C0310912F0347
:1019A4001A9541F48B9810B31870159515951595E3
:1019B40010933003109128031A9569F5109133039D
:1019C400113029F410913603105009F000E0109101
:1019D4002F03113029F4109130031A9509F400E013
:1019E40010912B03113029F410912C031A9509F44A
:1019F40000E010912D03113029F410912E031A9553
:101A040009F400E010912903113029F410912A03FC
:101A14001A9509F400E0013009F05BC000917C03E1
:101A240010917D03011709F452C000917D030395C1
:101A34000F7100937D0310E0F801E45AFC4F80819C
:101A440000912703005019F00A9529F008C0082FC7
:101A54000E94AA0207C0082F0E94B50203C0082FE3
:101A64000E94B502109126031050D1F01A9539F056
:101A74001A9559F01A9579F01A9579F010C0002347
:101A840011F450980DC0509A0BC0002311F4509AD1
:101A940007C0509805C0509A03C0509801C0509A8E
:101AA40010E05099139520912703205019F02A959E
:101AB40059F00BC0082F0068112319F40F7710E0B8
:101AC40004C0006811E001C0082F0CB903C0559888
:101AD40001C055989FBF0991199129913991499154
:101AE4005991699179910990199029903990E991C6
:101AF400F99189919991189500E503500DBF01E082
:101B040000400EBFC0EFD0E00E94F20D002311F0A0
:101B14000E941B0E00E00BBF0E94D9040E94CE0E4F
:101B24000C94CE0E002411240030010741F01695C8
:101B3400079510F4040E151E440F551FF5CF002D04
:101B4400112D08950024112422243324E0E2EA957F
:101B540092F0001F111F221F331F001C111C221C96
:101B6400331C041615062606370688F3041A150ACC
:101B7400260A370AECCF001F111F221F331F402DE6
:101B8400512D622D732D0095109520953095089553
:101B9400FA92EA92DA92CA92BA92AA929A928A92A1
:101BA4007A926A925A924A92BA93AA939A938A938D
:101BB4000895FF84EE84DD84CC84BB84AA84998454
:101BC40088847F806E805D804C80BB81AA819981EE
:101BD4008881F0E00FB6F894CE0FDF1F0FBE089592
:101BE40001E00895F80101C02193BA014150504029
:101BF400672BD1F7089510E00C94C00222979E0140
:101C04002E5F3F4F28833983BE0140E050E02DEF23
:101C14003DE00E94D10E2296089520E02D930150BC
:101C24001040D9F7089525912D9301501040D9F70C
:101C3400089587E495E0FC0105911491FC01329626
:101C4400A591B491FC01349625913491422F432BF4
:101C540019F0F901E8DF01C0E0DF069615E08335ED
:101C6400910748F308954B2F1A2FF901A081B181F0
:101C74000D93A083B183A12FB42F0895BA93AA938F
:101C840024970883198389019E012A5F3F4F2A8381
:101C94003B83BE016E5F7F4FAE0125E33EE00E94B1
:101CA400D10E20E0A881B9812C932496A991B991F1
:101CB40008955B2F4A2FF801D9012D9121932223F6
:101CC400E1F7A42FB52F08957B2F6A2FD80100E0E8
:101CD40010E003C011960F5F1F4F4C91442341F055
:101CE400F90140814423B1F341915C914517C9F74F
:101CF400A62FB72F0895F80101C031962081222321
:101D0400E1F7E01BF10B8F0108957B2F6A2FD801B7
:101D140000E010E007C041915C91451739F40F5F72
:101D24001F4F11964C91442321F0F9014081442323
:101D340091F7A62FB72F08950E94D60DD801C90197
:101D4400012B21F4E0E6F2E0A081B1819C018D0138
:101D54000E94870EA00FB11F0C91002331F402E6FC
:101D640012E015D000E010E00FC09C018D010E942C
:101D7400660E0A0F1B1FF8012081222319F020E0B0
:101D840021938F0104D08D01E4E00C94E70DE0E68B
:101D9400F2E000831183089500008895FECF0E942D
:101DA400CA0D2697088319832A833B834C835D835A
:101DB4004B01CC24DD2401C0C4D0C7D005E2A01659
:101DC40039F0AA20C9F786012696E0E10C94DB0DD0
:101DD40010E000E02081285621F0245041F401E075
:101DE40001C011E09F012F5F3F4F28833983ADD09D
:101DF4002A2D285509F46DC02B5059F02A9509F461
:101E040058C02B50E1F0245061F0255009F461C012
:101E1400D3CFD401ED91FC91A190B190FC93EE93BA
:101E2400CBCFD401ED91FC9181919191FC93EE93F0
:101E3400FC01A190CF01AA2001F283D0F9CF28E0C0
:101E440094D011F4002379F5442420E8522E66241A
:101E54007724112309F44CC07ED009F046C0A92F81
:101E6400AA0FAA0BBA2F04E6A01669F4BB235AF4EE
:101E74009095A095B09581959F4FAF4FBF4F2C8102
:101E84003D810DE276D002E0401600E05006600687
:101E9400700608F44CC084159505A605B70508F02E
:101EA40046C06FD0F0CF44245524662400E4702E3D
:101EB40021C02AE05AD011F4002321F420E1422E5B
:101EC40027E2C4CF44240AEC502E0AE9602E0BE327
:101ED400EECF20E14AD011F4002311F44424B6CF0C
:101EE40044245524662400E1E2CFA0E0B0E0CBCF47
:101EF400002361F0F401A081B1810D911D912D9118
:101F04003D91A083B183C801D901ADCF24D069F735
:101F1400A6CF495F2C813D81042F2BD03CD0CA0130
:101F2400DB012FD0012B022B032B09F446CF33D036
:101F3400402F405D4A3370F308E7A01651F7495D1E
:101F4400E9CF2C813D810A2D14C0E881F981A1904B
:101F5400E883F983089504E6A016F401A081B18111
:101F64008D919D91A083B1830895E22EFF241123C6
:101F74000895EA81FB81099501E0C00E00E0D01EBE
:101F8400089582019301A70160E070E00E94A40D0E
:101F94002801390108958C019D01A201B3010C941B
:101FA400A40D5E5A005E430A000820080025730051
:101FB4002829000A0D000A0D2573002563000D4E23
:101FC4006F206D657373616765206572726F723A15
:101FD40020002564000D004E6F206D6573736167EA
:101FE40065206572726F7220004F6B210A0D000A22
:101FF4000D0A0D0A0D002829202D20002563000A52
:102004000D09000A0D2D2044696374696F6E6172B5
:10201400792066756E6374696F6E7320666F7220C3
:102024004B45595F444953502076657220302E3019
:1020340031202D002C290A0028292C002564000AAF
:102044000D000D00256320000A0D274F6B0A0D4576
:102054006E642054657374206F75745F6572725F6B
:102064006D73672829200A0D007669657728312960
:102074000A007072696E7429312C32280A00707259
:10208400696E7428312C320A007072696E74312CB6
:10209400320A00546573742076657220302E303213
:1020A40020666F72205363616E5F434D44200A0DB6
:0520B4000002620200C1
:00000001FF
