:100000000C948A05189518951895189518951895B3
:100010001895189518951895189518951895189578
:100020001895189518951895189518951895189568
:100030001895189518951895189518951895189558
:100040001895189518951895189518951895189548
:1000500018951895AD01B0009226CA005D02000007
:100060000805AB0F631125970AE00093610207E8CA
:1000700016ED22E130E0E1E6F2E001831283238312
:1000800034830FE812EC25ED3FE3E1E6F2E005836F
:1000900016832783308701E4088301E0098306E59E
:1000A00000936C0208E400936D0204E010E0EFE5B9
:1000B000F2E00083118307E310E0EFE5F2E0008354
:1000C000118304E723E030E0A9010E94DA0501E38F
:1000D00010E026E030E0A9010E94DE05209A01E050
:1000E000209800E000E0E7E2F3E000FB008100F987
:1000F000008300E000F901E0E7E2F3E000FB0081AB
:1001000000F9008300E000F9AFCF40E050E00417B1
:10011000150761F040EB50E0E02FF12F428353834D
:10012000422F242F20FB16F40E94A8050895E02FEB
:10013000F12F00811181089508950E940D10C801CA
:10014000D90100E010E08017910789F006EB10E07C
:10015000E82FF92F0283138320E030E08C010E9406
:1001600085000A2F00FB1EF48C010E94A805E4E024
:100170000C941A100E94771208950E940D10980195
:10018000CA01DB0100E010E02017310751F40EE056
:1001900010E00E94C810980100E010E0201731071D
:1001A000E9F0E22FF32F80839183A283B383B90117
:1001B0006C5F7F4F04E8002E02E0102E8B01F001EF
:1001C00047E050E00E94F10FE6EAF2E04081518101
:1001D0006281E22FF32F4387548765878901E4E02A
:1001E0000C941A10BA93AA93D8018A01F9010E94BB
:1001F0009E10A991B9910895E02FF12F00811181EE
:100200000895E02FF12F008110E00895E02FF12FE5
:1002100000811181E22FF32F208131810217130712
:1002200011F401E0089500E008950FEF1FEF089525
:100230000E94A80508950E940D10C801D90100E090
:1002400010E08017910751F021E08C010E944B01D2
:100250000A2F00FB1EF48C010E94A805E4E00C9418
:100260001A10E02FF12F4281538120E030E0421735
:10027000530721F40E944401980104C0E02FF12F9C
:10028000228133818901089508E111E008958901EF
:100290000150104008959A938A93C8012030E1F1EB
:1002A000E82FF92F2281338100E010E02017310779
:1002B00099F1E82FF92F228133818C010E944701A7
:1002C000E02FF12F0081002361F0E82FF92F228128
:1002D00033818C010E944701E02FF12F00810F3FF5
:1002E00079F4E82FF92F268137812E5F3F4FE82FD1
:1002F000F92F02811381015010400E9418010CC097
:10030000E82FF92F228133818C010E944701E02FD1
:10031000F12F00810A95008300E010E0E82FF92F0B
:100320000283138300E010E0E82FF92F0483158384
:1003300000E010E0E82FF92F068317838991999147
:1003400008950E940D10C801D90100E010E0801747
:100350009107C1F00CEB10E0E82FF92F0283138313
:1003600022E030E08C010C5F1F4F0E941B0120E057
:1003700030E08C010E9485000A2F00FB1EF48C01E6
:100380000E94A805E4E00C941A100C5F1F4F0E9415
:10039000310108950E94771208950E940D10C8013E
:1003A000D90100E010E08017910789F002EC10E01D
:1003B000E82FF92F0283138320E030E08C010E94A4
:1003C000A1010A2F00FB1EF48C010E94A805E4E0A5
:1003D0000C941A100E94771208950E940D10C80103
:1003E000D90100E010E08017910789F008EC10E0D7
:1003F000E82FF92F0283138320E030E08C010E9464
:10040000A1010A2F00FB1EF48C010E94A805E4E064
:100410000C941A100E94771208950E940D10C801C2
:10042000D90100E010E08017910789F00EEC10E090
:10043000E82FF92F0283138320E030E08C010E9423
:10044000A1010A2F00FB1EF48C010E94A805E4E024
:100450000C941A100E94771208950E940D10C80182
:10046000D90100E010E08017910789F004ED10E059
:10047000E82FF92F0283138320E030E08C010E94E3
:10048000A1010A2F00FB1EF48C010E94A805E4E0E4
:100490000C941A100E94771208950E940D10C80142
:1004A000D90100E010E080179107C1F00AED10E0DB
:1004B000E82FF92F0283138322E030E08C010C5FD8
:1004C0001F4F0E941B0120E030E08C010E9485003C
:1004D0000A2F00FB1EF48C010E94A805E4E00C9496
:1004E0001A100C5F1F4F0E94310108950E9477126D
:1004F00008950E940D10C801D90100E010E0801796
:10050000910789F000EE10E0E82FF92F02831383A2
:1005100020E030E08C010E944D020A2F00FB1EF407
:100520008C010E94A805E4E00C941A100E94771236
:1005300008950E940D10C801D90100E010E0801755
:10054000910789F006EE10E0E82FF92F028313835C
:1005500020E030E08C010E944D020A2F00FB1EF4C7
:100560008C010E94A805E4E00C941A100E947712F6
:1005700008950E940D10C801D90100E010E0801715
:10058000910789F00CEE10E0E82FF92F0283138316
:1005900020E030E08C010E944D020A2F00FB1EF487
:1005A0008C010E94A805E4E00C941A100E947712B6
:1005B00008950E940D10C801D90100E010E08017D5
:1005C000910789F002EF10E0E82FF92F02831383DF
:1005D00020E030E08C010E944D020A2F00FB1EF447
:1005E0008C010E94A805E4E00C941A100E94771276
:1005F000089540E050E00417150761F048EF50E01F
:10060000E02FF12F418F528F422F242F20FB16F421
:100610000E94A80508953B2F2A2FE02FF12FA485D3
:10062000B5850D911C911197A22FB32F08953B2FE3
:100630002A2FE02FF12FA685B7850D911C911197D8
:10064000A22FB32F08953B2F2A2FE02FF12FA4893B
:10065000B5890D911C911197A22FB32F08955B2F8F
:100660004A2FE02FF12FA485B5850D911C91020F23
:10067000131F1C930E93A42FB52F08953B2F2A2FE1
:10068000E02FF12FA689B7890D911C911197A22F08
:10069000B32F08955B2F4A2FE02FF12FA485B58546
:1006A0002D913C911197E02FF12FA485B5850D91E7
:1006B0001C910F5F1F4F1C930E938901A42FB52F20
:1006C00008955B2F4A2FE02FF12FA685B7850D9156
:1006D0001C91020F131F1C930E93A42FB52F089586
:1006E0000E94150108950E941501089500E010E090
:1006F00008950E9415010895BA93AA932497D801EA
:100700005996ED91FC915A9738968D01208131814F
:10071000F90109950A831B830E9415010883198337
:100720009E012E5F3F4F8E010E940601002319F0AB
:100730000E94150105C08D010E944A030E9401011B
:100740002496A991B99108950E9407102497D80181
:100750002901CA016624772418C0881599050CF46C
:100760004C01A4014A018D010E940B039801A401D0
:1007700082010E94F200480C591C680C791C8819EF
:10078000990994018D010E942F03813000E09007A8
:10079000ECF18D010E940B0320E030E002171307FB
:1007A00071F08D010E94230348018D010E940B030B
:1007B000801A910A01E0801600E0900674F6EA2F94
:1007C000FB2F218D328D265F3F4F8D01E22FF32FBE
:1007D00020813181F9010995088319830E9415014F
:1007E0000A831B839E018E010E5F1F4F0E9406012C
:1007F000002361F48E010E94FC00F20101932F019D
:1008000001E0600E00E0701E0197BFCF83012496C7
:10081000EAE00C9414100E9407102497D8012901D3
:10082000CA016624772419C0881599050CF44C0177
:10083000A401920129014A018D010E941703A4011C
:1008400092010E94F200480C591C680C791C88190E
:10085000990994018D010E946103813000E09007A5
:100860000CF441C08D010E94170320E030E0021714
:10087000130771F08D010E943E0348018D010E9413
:100880001703801A910A01E0801600E0900664F6D2
:10089000EA2FFB2F818C928C02E0800E00E0901EEC
:1008A00082010E94010198018D01E82DF92D4081FE
:1008B0005181FA0109950A831B830E94150108835F
:1008C00019839E012E5F3F4F8E010E940601002377
:1008D00051F401E0400E00E0501E01E0600E00E027
:1008E000701E0197BACF83012496EAE00C9414108D
:1008F0009A938A932E97C801E3E3F1E040815181F6
:10090000628173818E010E94BD009E018C01F901FC
:100910004EE050E00E94F10F8C012E968991999142
:10092000239608959A938A932E97C801E3E3F1E002
:1009300040815181628173818E010E94BD009E01C0
:100940008C01F9014EE050E00E94F10F8C012E96CF
:10095000899199912E960895089500E010E00895E8
:1009600008950E940D10C801D90100E010E0801721
:10097000910789F002E111E0E82FF92F018B128B2A
:1009800020E030E08C010E94C2090A2F00FB1EF417
:100990008C010E94A805E4E00C941A100E940D102E
:1009A000C801D90100E010E08017910789F004E147
:1009B00011E0E82FF92F018B128B20E030E08C0141
:1009C0000E94B1040A2F00FB1EF48C010E94A805AE
:1009D000E4E00C941A100E940D10C801D90100E047
:1009E00010E08017910789F006E111E0E82FF92F58
:1009F000018B128B20E030E08C010E94B1040A2FA1
:100A000000FB1EF48C010E94A805E4E00C941A106F
:100A10000DE512E00E94690B09E111E00E943F051B
:100A2000089501E010E00C944713BA93AA93E9E10A
:100A3000F3E02081318110E02030310739F0A9E165
:100A4000B3E0ED91F32F099501E001C000E010E063
:100A5000A991B991089500E010E008950E940D1049
:100A6000C801D90106C0FC0105911491F80109954E
:100A700002968A179B07B9F7E4E00C941A10BA9310
:100A8000AA93D8011CD02030304039F4E0E8F2E0DD
:100A900000811181A017B10711F40E941105E0E84F
:100AA000F2E000811181ED91FC9111970083118397
:100AB000E0E8F2E0A083B183A991B9910895ED91A6
:100AC000FC911197208131810895BA93AA9307C0B0
:100AD00022E030E01496ED91FC9115970995E0E83D
:100AE000F2E0A081B18130E0A030B30781F0AD0128
:100AF000E6DFE0E8F2E020833183EA2FFB2F02817A
:100B0000138120E030E00030130711F7E3CFA99103
:100B1000B991089500EB03500DBF00E000400EBFF7
:100B2000C0E8D0E00E942510002311F00E94991126
:100B300000E610E026E630E00E942E0500E00BBF44
:100B40000E9433000E94FC050C943E130895089502
:100B500030E00030130711F00E94AA060895E199D1
:100B6000FECF08954F5F5F4FFADF4EBB5FBBE09A49
:100B70000895FADF0DB30895F7DF0DB3F3DF1DB36A
:100B80000895F2DF0DB3EEDF1DB3ECDF2DB3089552
:100B9000EBDF0DB3E7DF1DB3E5DF2DB3E3DF3DB3DF
:100BA00008954F5F5F4F4EBB5FBBF894E29AE19AA6
:100BB0000FBE08950FB6D3DF0DBBF5CF0FB6CFDF55
:100BC0000DBBF1DFCCDF1DBBECCF0FB6C8DF0DBB1B
:100BD000EADFC5DF1DBBE5DFC2DF2DBBE2CF0FB60D
:100BE000BEDF0DBBE0DFBBDF1DBBDBDFB8DF2DBB36
:100BF000D8DFB5DF3DBBD5CF0C943E130E940B1060
:100C0000280180E090E0E02FF12F04811581103061
:100C100034F00E942B05012B11F08FEF9FEFE42D94
:100C2000F52D0085118530E00030130791F00E940A
:100C30008611012B11F08FEF9FEFE42DF52D00852C
:100C400011850E94AA0600E010E0E42DF52D008732
:100C50001187A7E5B2E008C000E0E42DF52D02837E
:100C600003830D911C91D8012D913C91119710E0B7
:100C70002030310789F02415350599F7E42DF52D3D
:100C8000008111810D931C931197028107FB26F7B8
:100C900082010E94AA06E5CF8C01E6E00C941810B0
:100CA00000E010E008950E940D102197D801CD01B9
:100CB000E02FF12F068117810F3F2FEF120719F058
:100CC0002683278322C0138100E01370012B19F0C3
:100CD0000FEF1FEF1AC041E050E09E010481158123
:100CE0000E94661110303CF4E82FF92F68941381AC
:100CF00011F91383EDCF012B31F4E82FF92F68940C
:100D0000138110F9F6CF088110E02196E4E00C94ED
:100D10001A100C94B612BA93AA932197D90108839A
:100D200041E050E09E01EA2FFB2F048115810E94D3
:100D3000891210304CF4EA2FFB2F6894138111F9BB
:100D400013830FEF1FEF02C0088110E02196A991D5
:100D5000B99108951B2E0A2EF801A6E1B3E00C917B
:100D6000002309F471C09F0110E02038F10708F456
:100D70006BC02039304008F067C032972081318144
:100D800011964D915C91129700E010E040305107B0
:100D900021F0BF01E417F50740F48F01428353832C
:100DA000EA2FFB2F018312832FC0DA0112964D9197
:100DB0005C9113974017510731F0A617B707A8F7B2
:100DC0006417750790F70D911C911197000F111F73
:100DD000000F111F0A0F1B1F0E171F0751F48D0163
:100DE000EA2FFB2F40815181420F531F51834C93B7
:100DF0000BC08F01EA2FFB2F02831383E02FF12F0B
:100E00004283538320833183E02FF12FA281B3816A
:100E100020813181220F331F220F331F200F311FFA
:100E20002A173B0789F42D913C911197EA2FFB2F4C
:100E300062817381E02FF12F40815181420F531F56
:100E40005183408362837383A02DB12D08953A931B
:100E50002A9320E030E00C94FD1240E050E05A93D9
:100E60004A9360E070E00C94FD120E940D10C801DE
:100E7000E5E2F3E02081318110E02030310719F004
:100E8000192FF90109958C01A82FB92F1296ED9110
:100E9000FC9124813581F90109958C010E9477121A
:100EA000E4E00C941A100C94C8109A938A93C80129
:100EB00000E010E08030910751F402E010E00E9461
:100EC000C810C80100E010E08030910751F09C018B
:100ED0002F5F3F4F2017310721F401E010E00E94FF
:100EE000C8108C018991999108950E940510C8013C
:100EF000D90110E08030910751F408E010E00E9421
:100F0000C810C80110E08030910709F444C0242DB6
:100F1000192F0E94550720E08C010E944B014D01C2
:100F20005C01F4010E946E1238012401D501A20176
:100F3000FD012281338110E02030310769F08A0100
:100F40008216930648F044815581420F531F401783
:100F5000510710F001E001C000E0003049F0B3019A
:100F6000421A530AA2019D018D010E94CF0713C0AE
:100F700041E093018D010E941D09002361F0A3014E
:100F80009201EA2FFB2F028113810E94F20093014C
:100F90008D010E940F098C01ECE00C9412100E944C
:100FA0000710C80129013A014B0182010E94C208C1
:100FB0000615170518F48C010E94EA1182010E949F
:100FC000C208D801A619B7098A169B0608F4D401ED
:100FD0008415950589F4EEE0F2E040815181A60D7B
:100FE000B71D9D018C010E945208A30120E030E052
:100FF0008C010E94520852C00A2F0B2BB9F18201BA
:101000000E94C208A017B10789F582010E94310130
:1010100098018C010E944701E02FF12F00810E3FC3
:1010200028F521E08C010E944B0182010E943101D0
:10103000E82FF92F0283138382010E94C208E82F50
:10104000F92F04831583E42DF52D06811781E82FF0
:10105000F92F06831783228133818C010E94470177
:10106000E02FF12F00810395008318C041E09D011E
:101070008C010E941D09002389F082010E94310128
:10108000060D171D9801AD01E82FF92F028113817C
:101090000E94F2009D018C010E940F098C01EAE080
:1010A0000C9414100E940810C80139012A01E02F85
:1010B000F12F048115810217130718F48C010E9487
:1010C000EA11E82FF92F0481158106191709041573
:1010D000150508F42801042D052909F443C0DC0195
:1010E000E82FF92F43D0A1F047D00081002381F0F1
:1010F000E82FF92F228133813FD000810F3F41F04B
:1011000040E0E82FF92F248135818D010E941D09CF
:10111000EA2FFB2F2BD021F088248A942DD08082B7
:10112000E82FF92FA281B381A60DB71D0481158187
:101130000619170904191509F201EA0FFB1F0E948D
:10114000A910E82FF92FA481B581A419B50940E0B1
:101150009D018C010E941D09002321F09D018C013D
:101160000E940F098C01E9E00C9415102281338153
:1011700010E02030310708958D010E944701E02FD3
:10118000F12F0895E02FF12F0481158108950DEFBF
:101190001FEF08950E940910D801C9012C010FE129
:1011A000402A0A2F0E94C7080415190708F4482E80
:1011B00020E030E082010E5F1F4F0E945307C801FC
:1011C000EA2FFB2F44815581042F052B39F0228112
:1011D0003381082F0F5F1F4F0E94F200EA2FFB2F71
:1011E0006480758021E08D010E944B010196EA2FF9
:1011F000FB2F8283938380E02281392F8D010E940F
:101200004701E02FF12F8083EA2FFB2F4682578280
:1012100093018D010E940F09E8E00C9416106B2FCA
:101220005A2F40E0F80124833583A281B381A20FB5
:10123000B31F4C93A52FB62F08950E940C10C80120
:10124000D901442E0E94C7080A171B0718F48C0105
:101250000E94BF1100E04016E82FF92F19F0048317
:10126000058307C004811581A017B10710F4A4837A
:10127000B5834DD010E020303107D1F08C010E94B1
:101280004701E02FF12F0081002391F040D08C0125
:101290000E944701E02FF12F00810F3F49F00A2FF4
:1012A0000B2B69F521E08C010E944B0100E02CC062
:1012B0000A2F0B2B69F400E04016A1F728D020304C
:1012C0003040A1F320E030E08C010E940F09EECF06
:1012D000E82FF92F0681178120E0421659F00032DD
:1012E000120718F40A171B0728F421E08C010E944A
:1012F0004B0105C0421639F40A171B0720F49D0163
:101300008C010E94CA0801E0E5E00C941910E82F56
:10131000F92F2281338108956497277030E0E02F00
:10132000F12F208331836281062E022249F1403061
:1013300039F5322F262F2323322F347019F029E567
:1013400031E007C0227019F028E431E002C028E340
:1013500031E08E010E94750798018E01085F1F4FD2
:101360000E94A30A0E94350722E030E08E01085F48
:101370001F4F0E94D90222E030E08E010E941B0123
:10138000649608950E940E10C801A22F10E08030CC
:101390009107E1F001E311E0E82FF92F018B128BA7
:1013A00007851089012B49F007851089F801E3565C
:1013B000FD4F00810A95008319F48C010E94720A86
:1013C0000A2F00FB1EF48C010E94A805E3E00C9498
:1013D0001B103B2E2A2E2197A801415F5F4F06C0AC
:1013E0002F5F3F4FE42FF52F20833183E02FF12F24
:1013F000278530896BE872E0F901EE0FFF1FE60FD9
:10140000F71F283060E0360750F40080118060E05C
:1014100070E00616170619F00016110609F700838A
:101420001183E02FF12FA785B089A356BD4F0C91F2
:1014300003950C932196A22DB32D0895BA93AA93E8
:10144000D8019D01225F3F4F10E02030310739F075
:101450002030304021F401E010E00E94C81000E08C
:1014600012960D930C93139701E012E014960D93CE
:101470001C93159706E010E016960D931D931D938F
:101480001C93199700E010E01A960D931D930D938D
:101490001C931D9740E020E030E08D010E948C09F4
:1014A000A991B99108950E940B10C801A22FE02FB5
:1014B000F12F448455840EC0E42DF52D42815381D3
:1014C0009C010A2F64817581FB010995E42DF52D9E
:1014D0004080518000E010E04016510669F7E6E0D8
:1014E0000C9418100E940B10C80120E00E94530AAF
:1014F000E82FF92F0285138507C0E02FF12FA08177
:10150000B1810E94A8058D0120E030E00030130772
:10151000A1F7E82FF92F22873387A485B58507C067
:101520004D905C9011978D010E94A805D20100E0BA
:1015300010E0A030B107A1F7E82FF92F0487158735
:10154000E6E00C9418100E940B10C801D90100E0CD
:1015500010E08030910759F40CE010E00E94C810B0
:10156000C80100E010E08030910709F447C02D0168
:10157000DC018017910719F40CE044D0C9F18D010A
:1015800030E00030B30741F404E010E00E94C810DE
:1015900030E00030130751F02FE131E0E02FF12F60
:1015A0002283338327E331E02083318305E211E096
:1015B000EA2FFB2F02831383149610E0A030B107AB
:1015C00019F408E01FD0A1F0E42DF52D21818D0143
:1015D0000E94550720E08D010E944B01EEE0F2E0F1
:1015E0006081718140E050E092018D010E94CF073F
:1015F0000BE211E0E82FF92F028313838C01E6E060
:101600000C94181010E00E94C810D80110E0A0300F
:10161000B10708958901089530E00030130721F4DF
:1016200001E010E00E94C810089550E00030150756
:1016300021F020FB16F40E94A8050895BA93AA93FE
:101640002397488359836A83D80110E0A030B107FB
:1016500049F40EE010E00E94C810D80110E0A0305C
:10166000B107D1F000E00D930D930D930C931397F8
:101670009D012C5F3F4FBE016B5F7F4F8901FB01D6
:1016800047E050E00E94F10F088119812A811B96E2
:101690000D931D932C931D978D012396A991B991BC
:1016A0002796089530E00030130721F401E010E0A0
:1016B0000E94C810089530E00030130721F401E0C3
:1016C00010E00E94C8100895E02FF12F00811181D1
:1016D00008950E9409102197280100E010E04016AB
:1016E000510659F401E010E00E94C810280100E002
:1016F00010E04016510609F467C07CD0103034F079
:101700000F5F1F4F008F118FA0E005C001E010E0B8
:10171000008F118FA1E022E030E08E010E94150BB6
:10172000A03009F451C029EA32E05CD031F0E9E59B
:10173000F2E0208131810E94370D2DEC32E052D051
:1017400031F0EBE5F2E0208131810E94370DA1EF0D
:10175000B2E09D010AE147D0C9F0380100301040E5
:1017600019F40AE136D091F083010E94C60C07E813
:1017700011E0E62DF72D018B128B00E0008F018F19
:1017800041E029EA32E083010E94A00C9C0108E1BB
:101790002AD0B1F038010030104019F408E119D016
:1017A00079F083010E94C60C05E811E0E62DF72DC3
:1017B000018B128B41E02DEC32E083010E94A00CE2
:1017C000E1EFF2E0858B968B82012196E8E00C94A4
:1017D000161010E00E94C810380100E010E06016FA
:1017E0007106089504E210E00E940A0B30E0003018
:1017F0001307089520E030E08E010E940C0B83EA6D
:1018000091E0E3EAF1E0008D118D08950E94091046
:101810002197D801422E10E0A030B107C1F1EADFD4
:1018200001501040118F008F012B19F4662463942E
:1018300001C0662422E030E08E010E94150B00E01A
:101840006016F9F0662477248C010E94640B067000
:1018500099F4E3EAF1E003891489E02FF12F218D57
:10186000328DE22FF32F26893789F90109950F3F31
:101870001F4F11F404E0602E40E093018C010E94A0
:10188000840C042D00FB1EF48D010E94A8059DCF41
:101890005B2F4A2FE02FF12F0483158398012E5FD1
:1018A0003F4F268337839801285F3F4F2487358732
:1018B0009801265F3F4F268737879801205F3F4F6B
:1018C000248B358B98012E5E3F4F268B378B20E083
:1018D00030E0A681B7812D933C93A685B7852D93E3
:1018E0003C93A689B7892D933C93A02FB12F2D93BC
:1018F0003C93A485B5852D933C93A489B5892D93FC
:101900003C93A42FB52F08950E940B102801C90104
:10191000A42F022F032B89F0042D0E94640B4A2F61
:10192000802B912BF201238934892030304009F437
:1019300084609C018F010E948C09E6E00C941810D1
:101940000E940E10C801A42FE02FF12F238B348B9F
:1019500000E010E0058B168B00E2078B8C010E94E3
:101960001E0AE82FF92F238934892030304031F4C2
:1019700040E024E030E08C010E94840CA03019F09B
:101980008C010E94E909E3E00C941B100E940D10E9
:10199000D80110E0A030B10749F408E110E00E943E
:1019A000C810D80110E0A030B10729F11B2F30E09A
:1019B0000030B30741F403E110E00E94C81030E0AA
:1019C0000030130791F0C80101E311E0E82FF92F6F
:1019D000018B128B20E08C01025F1F4F0E945B0B7A
:1019E00000E0E82FF92F0787008B03E811E0EA2FCA
:1019F000FB2F018B128B8D01E4E00C941A100E94D6
:101A00000B10D801822F10E0A030B10769F109E86E
:101A100011E0EA2FFB2F018F128F068D0023C9F0F2
:101A20002D0120A131A12030304099F082010E9487
:101A3000A90F002371F0EA2FFB2F00A111A10E9432
:101A4000FE05012B31F442E020E030E082010E94EB
:101A5000750F20E030E08D010E94F902082F00FB95
:101A60001EF48D010E94A805E6E00C9418100E9457
:101A70000B10D801C90100E010E0A030B10751F40B
:101A800004E210E00E94C810D80100E010E0A0308D
:101A9000B10791F12D01A017B10751F40BE110E04E
:101AA0000E94C810280100E010E04016510671F0B5
:101AB00009E611E0E42DF52D018F128F8201085EF9
:101AC0001F4F0E94520B82010E94480C09E811E04E
:101AD000EA2FFB2F018F128F8D01015E1F4F0E9495
:101AE000520B00E010E0EA2FFB2F02A313A340E00B
:101AF0009C018D010E94750F8D01E6E00C94181079
:101B00009A938A93C80110E08030910749F404E267
:101B100010E00E94C810C80110E08030910749F120
:101B2000192F30E00030930741F40BE110E00E94E0
:101B3000C81030E00030130751F0F80109E611E059
:101B4000018F128F20E078968F010E945B0B09E8CD
:101B500011E0E82FF92F018F128F20E08C01015E38
:101B60001F4F0E945B0B00E010E0E82FF92F02A34B
:101B700013A38C018991999108959A938A9324973C
:101B800028833983C8010E9415010A831B839E01A3
:101B90008E010E5F1F4F0E9406010023A1F0888175
:101BA00099810E9415018017910719F00881198108
:101BB0001FC00E941501012B11F421E001C020E09B
:101BC00030E0890115C0FC0120A131A12030304056
:101BD00069F020A131A1C9018E010E94FC0010E032
:101BE0009C010E948B060F3F1F4F01F70E941501B9
:101BF00024968991999108950E940D102497288325
:101C00003983D801E02FF12F20A131A120303040BD
:101C1000F1F00E9415010A831B839E018E010E5F65
:101C20001F4F0E940601002391F4EA2FFB2F20A1F1
:101C300031A1C9018E010E94FC0010E09C010E94AC
:101C400079120F3F1F4F19F00881198102C00E94BD
:101C500015012496E4E00C941A100E940D10D8018E
:101C60005996ED91FC915A97CF0104968D012285EA
:101C70003385F901099598018D01E82FF92F4081ED
:101C80005181FA010995E4E00C941A10E02FF12F2C
:101C900020A131A150E02030350711F40C9415013A
:101CA00089010E9453060F3F2FEF120711F40E9483
:101CB000150108950E940810A397D801C9012A01AF
:101CC0003B018CA4E22FF32F20A131A12030304022
:101CD000D1F08C010E94A90F0023A9F0282D30E03B
:101CE000A201B301E82FF92F00A111A10E9427073B
:101CF000012B49F49E01E82FF92F00A111A10E94A8
:101D00008906012B71F0E3E3F1E0408151816281AA
:101D100073818E01095F1F4F0E94BD009E01295FE4
:101D200011C0FE0107E010E00E94FD0FE82FF92F1F
:101D3000438D548D658D8E01045E1F4F0E941E0BD6
:101D40009E012B5E3F4F8D01F9014EE050E00E9455
:101D5000F10F8D01A396ECE00C9415100E94091070
:101D6000A397D801C9019E01BE01615D7F4F890122
:101D7000FB0147E050E00E94F10F0BA51CA52DA52B
:101D80003EA54FA458A869A87AA8400E511E621E0D
:101D9000731E088119812A813B81401A510A620A07
:101DA000730AE82FF92F20A131A120303040E9F04B
:101DB0008C010E94A90F0023C1F042D00E942D0780
:101DC000012B99F4042D05290629072949F021E062
:101DD00030E0A201B30135D00E942707012B29F47E
:101DE0002FD00E948906012B71F0E3E3F1E04081DE
:101DF0005181628173818E01095F1F4F0E94BD0076
:101E00009E01295F11C0FE0107E010E00E94FD0F56
:101E1000E82FF92F438D548D658D8E01045E1F4F81
:101E20000E941E0B9E012B5E3F4F8D01F9014EE07B
:101E300050E00E94F10F8D01A396E6E10C9416107C
:101E40009E01E82FF92F00A111A10895BA93AA933A
:101E5000D80190960D911C91919770E00030170772
:101E600039F0BA0140E050E00E94B611012B19F0A0
:101E700000E010E001C08D01A991B9910895BA93D5
:101E8000AA932497D801E02FF12F20A131A120306F
:101E9000304011F10E94150198018D015996ED9184
:101EA000FC915A9742815381FA0109950A831B8359
:101EB0000E941501088319839E012E5F3F4F8E01FA
:101EC0000E940601002341F4EA2FFB2F00A111A17B
:101ED0000E94500610301CF000E010E002C00FEF2E
:101EE0001FEF2496A991B99108950E940D10C80181
:101EF000D901413011F401E001C000E0E82FF92FD1
:101F0000068F8C010E94480C10E0A030B10781F0D0
:101F10008C010E5D1F4FFC0104831583068317831C
:101F20000487158706871787048B158B068B178BFD
:101F3000E82FF92FA0A3B1A3EBE0F3E0008111811A
:101F40002281E82FF92F038F148F258FE4E00C9462
:101F50001A1001E00895BA93AA9320E009EA12E06A
:101F60000E94800D0DEB11E00E943F0520E00DEC7A
:101F700012E00E94800D03EC11E00E943F05A1EFEA
:101F8000B2E08D010E94C60C07E811E013D009EC05
:101F900011E00E943F05A3EAB1E08D010E94C60C4A
:101FA00005E811E007D00FEC11E00E943F05A99170
:101FB000B991089551960D931C9352978D010C94ED
:101FC000E909419251926192719281929192A1920A
:101FD000B192419051906190719081909190A190B7
:101FE000B190AF93BF93B12FA02F01900D924150AC
:101FF0005040D9F7BF91AF910895E00FF11F0290C3
:102000000A9201501040D9F70895BA92AA929A9272
:102010008A927A926A925A924A92BA93AA939A931D
:102020008A930895BB84AA84998488847F806E8073
:102030005D804C80BB81AA8199818881F0E00FB6D8
:10204000F894CE0FDF1F0FBE089501E0089500E061
:1020500010E020E030E00895043020E0120710F492
:1020600000E0089521E02D93ED93FC93008311830C
:1020700000E010E00283138301E008950E940B103A
:10208000C80102968017910718F400E010E053C0D1
:10209000843000E0900710F484E090E00091160393
:1020A000002361F4E0E8F0E000E910E0A6E1B3E02D
:1020B000005810400E942C10002339F327E133E030
:1020C00003C098012E5F3F4FE22FF32F0081118153
:1020D00040E050E00030150739F0E02FF12F40804C
:1020E00051804816590668F30417150771F2E02F5E
:1020F000F12F62817381AC014C5F5F4F441655062E
:1021000010F4C2010EC0FC01EE0FFF1FEE0FFF1F07
:10211000E00FF11F481A590A40825182628373838B
:10212000BF01E22FF32F60837183E02FF12F8083B3
:1021300091830E5F1F4FE6E00C9418109D0104C0C0
:1021400041914D9301501040402F412BC9F7890117
:1021500008959D01EA17FB07B0F4B8016E0F7F1FC9
:10216000A617B70780F4A00FB11FE00FF11F402F93
:10217000412B61F042914E9301501040F8CF4191B4
:102180004D9301501040402F412BC9F7890108950C
:102190000E940D102197C8013CD02030304041F4FE
:1021A00000E011E00E943E10EBE1F3E000831183B8
:1021B00022E030E08E010E94150B8C010E943E103F
:1021C000D80110E0A030B107C9F423D010E02030CE
:1021D000310751F0022F132F0E94AA0600E010E0F1
:1021E000EBE1F3E00083118322E030E08E010E94F6
:1021F000150B8C010E941505012BF9F610E0A0309B
:10220000B10711F40E9413118D012196E4E00C94A2
:102210001A1020E030E08E010E940C0BEBE1F3E09D
:102220002081318108950E940D1080E293E0E0E268
:10223000F3E00481002319F501E00483DC018D0142
:102240000030B04041F404E010E00E94C81030E0DB
:102250000030130751F025ED31E0E02FF12F2283FC
:10226000338327EE31E0208331830BED11E0E0E290
:10227000F3E00283138301EE11E00E943F058C011D
:102280000E947712E4E00C941A100E940E10C8010C
:10229000A22F10E08030910789F00BED11E0E82FBC
:1022A000F92F0283138320E030E08C010E94850027
:1022B0000A2F00FB1EF48C010E94A805E3E00C9499
:1022C0001B100C94771200931D0308950E940910AF
:1022D00038012901DA0180E090E005C0F2010193A4
:1022E0002F01019611970A2F0B2B29F083010E94D1
:1022F0007F1110309CF78C01E8E00C941610012B34
:1023000011F40C94A6050FEF1FEF089500E010E004
:10231000089520E02D9301501040202F212BC9F764
:10232000089505900D9201501040202F212BC9F7E0
:10233000089584E590E0FC0105911491FC0132962A
:10234000A591B491FC0134964591549130E0403010
:10235000530721F0FA010E94911102C00E948911D5
:10236000069610E08036910730F30895423000E081
:10237000504011F410E008950FEF1FEF0895BA9345
:10238000AA93649720E132E08E010E947507DE0176
:10239000189698018D010E94FB1102E012E012963E
:1023A0000D931C9313978D0106D00E940D020BD044
:1023B000A991B99108950E94350722E030E08E017D
:1023C000085F1F4F089522E030E08E010E941B013C
:1023D00064960895649720E232E08E010E947507AA
:1023E00098018E01085F1F4F0E944F12E4DF0E9488
:1023F0002D02E9DF08950E940B10C801D90110E0F9
:102400008030910749F40CE010E00E94C810C80128
:1024100010E080309107F9F1192F30E00030930778
:1024200041F404E010E00E94C81030E000301307CF
:1024300051F026EF31E0E02FF12F2283338328E3A0
:1024400032E0208331830CEF11E0E82FF92F028373
:1024500013832D01DC01149610E0A030B10749F47C
:1024600008E010E00E94C810D80110E0A030B107C9
:1024700091F0E42DF52D21818D010E94550720E07A
:102480008D010E944B016FEF7FEF40E050E0920121
:102490008D010E94CF078C01E6E00C9418100E9479
:1024A0000D10D801C90110E0A030B10749F40CE0CB
:1024B00010E00E94C810D80110E0A030B10751F020
:1024C0009C011B2F0E94FB1108E012E012960D9355
:1024D0001C9313978D01E4E00C941A108F01219145
:1024E0002223E9F7E01BF10B31978F0108950C943B
:1024F0001105592F482FF901868197818F3F9F4FF2
:1025000019F40683178302C00FEF1FEF842F952F56
:1025100008950E9409102801D901CA016624772470
:1025200005C001E0600E00E0701E0197082F092B26
:1025300059F0FD012191DF0182010E94A8121030A3
:1025400084F70FEF1FEF01C08301E8E00C94161031
:10255000013030E0130719F00230104021F4022F4F
:1025600010E00C94A7050FEF1FEF08950E940B10C9
:10257000C801290121E030E040E050E060E070E077
:10258000E02FF12F048115810E942710E82FF92FE9
:1025900042815381642F637031F00F3F6FEF160754
:1025A0002607360759F403E210E0E2E8F2E0008380
:1025B00011830FEF1FEF2FEF3FEF1CC040E0507172
:1025C000452B49F0868197818F3F9F4F21F0015025
:1025D00010402040304040E050E04416550651F095
:1025E000E42DF52D008311832283338300E010E076
:1025F00020E030E0E6E00C9418100E940D10C801B5
:102600002C813D81DC01E02FF12F0281037049F420
:1026100003E210E0E2E8F2E0008311830FEF1FEF26
:102620002AC0213000E0300729F4042F052B062BA7
:10263000072B69F4223000E0300749F0022F032B0A
:1026400061F44F3F0FEF50076007700731F00481CE
:1026500015810E942710A801B9014F3F5F4F6F4FAE
:102660007F4FB1F2EA2FFB2F028113811E7C13836F
:10267000028300E010E0E6E00C941A10802F912F06
:102680000E946505082F192F0C94471300008895A8
:10269000FECF850097009C009D009700BA00A10125
:1026A000C501CA01CD01C501EA01ED01C5010A025A
:1026B0000D02C5012A022D02C5014A024D02710216
:1026C000760279027102960299027102B602B9028B
:1026D0007102D602D9027102F602F9027003730385
:1026E000760379037C03A4030B0478049204AC04FE
:1026F000AD04B004B104CE04EB04007E025D02061A
:102700000C850097009C004D0271027602D902717F
:1027100002F602C209FFFFFFFF00696F733A3A65D4
:102720006F666269742073657400696F733A3A6604
:1027300061696C6269742073657400696F733A3AF9
:102740006261646269742073657400F902700373D6
:1027500003760379037C03A4030B0478049204AC8E
:1027600004AD04B004B104CE04EB04FF0CBD0DFCB9
:102770000D76032D0E460EA4030B045A0EAE0E2644
:102780000F3F0FB004000000000000000000000038
:1027900000000000000000000000000000FFFF0E2D
:1027A00003A902FF0C1003CD02FF0C1203F102EB90
:1027B000041403A301CE04850097009C00451197E3
:1027C0000061111E032003451162616420616C6C7D
:1027D0006F636174696F6E00850097009C00A101B2
:1027E000C501CA010D02C5012A022D02C5014A0216
:1027F000FFFF737472696E6720746F6F206C6F6E69
:102800006700696E76616C696420737472696E67C3
:1028100020706F736974696F6E000000000200021F
:1028200000FFFF0000390202000100FFFF0000432B
:0F2830000201000000FFFF00004D024D024302B5
:1000010037000000000000000000000000000000B8
:0700110000000000000000E8
:00000001FF
