:100000000C94320E18951895189518951895189502
:100010001895189518951895189518951895189578
:100020001895189518951895189518950C946D07AE
:100030000C94F1070C94EF0B189518950C94490D3E
:100040001895189518951895189518951895189548
:1000500018951895FFFFFFFFFFFFFFFFFFFFFFFF52
:10006000FFFFFFFFFFFFFFFFFFFFFFFFFFFFFFFFA0
:10007000FFFFFFFFFFFFFFFFFFFFFFFFFFFFFFFF90
:10008000FFFFFFFF81F349613325FBB10121FFFF32
:10009000FFFFFFFFFF11018DFF0D1DFF13FFFFFF8E
:1000A00087FFFF81FF19FF25FF13FFFFFFFFFFFF02
:1000B000FFFFFFEFFFFF074F43FFFFFF1FFFFFFFA4
:1000C000CFFFFF5747FFFF5FFFFFC7FFFFFFFFFFA8
:1000D000FFF3FFFF80250000000100010101010185
:1000E0000101011113010001000100000020202086
:1000F00020202020202028282828282020202020D8
:1001000020202020202020202020202020881010A7
:100110001010101010101010101010101004040403
:1001200004040404040404101010101010104141C1
:1001300041414141010101010101010101010101AF
:1001400001010101010101011010101010104242C3
:10015000424242420202020202020202020202027F
:10016000020202020202020210101010203D00ECF6
:09017000002422650129010000B0
:10017A001127222717E0079508F420951A951123CD
:10018A00D1F7022F08951127222718E0079508F4BE
:10019A0020951A951123D1F7022F08950C94CC0BB0
:1001AA00BA93AA93D80102C00D9106D00C910023EC
:1001BA00D9F7A991B991089510E00C94CE08BA9391
:1001CA00AA9310C00AE05AD06FD089010F5F1F4F5F
:1001DA00008311830AE0F0DF00E050D010E064D021
:1001EA000083118353D056D0002349F05DD000819B
:1001FA00980155D04FD010E0A991B991089500E027
:10020A0053D0008301830BC041D0012B41F0008100
:10021A00015010400083118303EF10E0C1DFBEDFFD
:10022A000A3159F441D020813181232BC1F40CEEDB
:10023A0010E0B6DF0FEF1FEFDFCF0F3729F30830DB
:10024A0021F424D0012B59F3E2CF033029F40FEE25
:10025A0010E0A6DF09E2C2CF0D3009F4B3CFA3E55F
:10026A00B1E0ED91FC91B8973CF40032C0F206D0AF
:10027A001BD015D0A1DFD3CF07E0FCCF15D020814A
:10028A003181F901E75DFE4F008308950DD00081A9
:10029A0011810895F801E75DFE4F008108952F5FEF
:1002AA003F4F208331830895E3E5F1E00895592F04
:1002BA00482F239700E00093B90100E010E008837B
:1002CA0019831BC001E328813981F901E654FE4FE5
:1002DA00008300EA28813981F901E653FE4F008341
:1002EA0005E028813981F901E652FE4F0083088131
:1002FA0019810F5F1F4F0883198388819981803183
:10030A00904004F300E010E0EAEEF1E0008311838C
:10031A0000E00093EC010FEF0ABB01E00093B90182
:10032A002396842F952F08958A931FEF1ABB1BB328
:10033A002FEF2BBB03950093EC010091EC010031E8
:10034A0018F000E00093EC010091EC0110E0F801D4
:10035A00E653FE4F0081000F00E0001F005089F4B1
:10036A0004E510E02091EC0130E0F901E654FE4F7B
:10037A002081E22FF0E0EF77F070E00FF11F849117
:10038A0007C00091EC0110E0F801E654FE4F8081AD
:10039A000091EC0110E0F801E653FE4F008102954E
:1003AA000F7006950B7F10E0005019F0025019F0FB
:1003BA0023C08FEF21C0EAEEF1E00081118144E60B
:1003CA0050E00E94660E2091EC0130E0F901E652FD
:1003DA00FE4F408150E00E94660E20E030E00E940D
:1003EA00F80E40E050E060E07FE30E94630F0E9455
:1003FA00FA0E00FB0EF48FEFBC9ABD9ABE9ABF9A12
:10040A00ECEEF1E0008100FD02C0C49801C0C49A7C
:10041A00ECEEF1E0008101FD02C0C59801C0C59A69
:10042A00ECEEF1E0008102FD02C0C69801C0C69A56
:10043A00ECEEF1E0008103FD02C0C79801C0C79A43
:10044A000FEF0ABB8BBB89910895592F482F239729
:10045A0000E00093550100E010E00883198322C0F0
:10046A0000E028813981F901E95AFE4F008300E052
:10047A0028813981F901E05AFE4F008300E0288182
:10048A003981F901E759FE4F008300E0288139815B
:10049A00F901EE58FE4F0083088119810F5F1F4F43
:1004AA00088319838881998188309040CCF200E0D2
:1004BA0000935F0100E00093680100E0009371017E
:1004CA0000E000937A0100E000937B0100E00093D2
:1004DA007C0100E000937D0100E000937E0100E0D2
:1004EA0000937F0100E00093800100E00093810106
:1004FA0000E00093820100E00093830100E0009392
:10050A00840100E00093850100E00093860100E089
:10051A000093870100E00093880100E000938901BD
:10052A0000E000938A0100E000938B0100E0009351
:10053A008C0100E000938D0100E000938E0100E041
:10054A000093A30100E00093A40100E00093A50139
:10055A0000E00093A60100E010E00883198322C09E
:10056A0001E028813981F901E955FE4F008301E054
:10057A0028813981F901E555FE4F008301E0288180
:10058A003981F901E155FE4F008301E02881398163
:10059A00F901ED54FE4F0083088119810F5F1F4F47
:1005AA00088319838881998184309040CCF201E0D4
:1005BA000093550100E0009356012396842F952F4E
:1005CA00089509B7026009BF03B7036003BF0DE8C6
:1005DA000093B7010091B70102BF089509B70D7FD3
:1005EA0009BF03B7087F03BF0895F8DF00B70160AA
:1005FA0000BF00B70E7F00BF03B70F7E03BF03B76C
:10060A000F7D03BF03B70F7703BF03B70F7B03BF8A
:10061A0003B7077F03BF08952197A49AAC9A00E015
:10062A00088304C0AC9808810395088308810233C3
:10063A00C8F3AC9A04B3007F04BB03B30F701091E4
:10064A007B0120915F0130E0F901E95AFE4F2081D8
:10065A002170121B10937B01102F1170EBE7F1E050
:10066A002081210F208310917C0120915F0130E0CD
:10067A00F901E95AFE4F208122702595121B109329
:10068A007C01102F12701595ECE7F1E02081210F03
:10069A00208310917D0120915F0130E0F901E95A30
:1006AA00FE4F2081247025952595121B10937D01FC
:1006BA00102F147015951595EDE7F1E02081210FA3
:1006CA00208310917E0120915F0130E0F901E95AFF
:1006DA00FE4F20812870259525952595121B10938C
:1006EA007E01102F1870159515951595EEE7F1E016
:1006FA002081210F208320915F0130E0F901E95A1E
:10070A00FE4F008300915F010395077000935F011C
:10071A0000918B010093A30100E000938B010091EB
:10072A007B0148E00E94480E088300918B011881E2
:10073A00102B10938B0100917C0148E00E94480E17
:10074A00088300918B011881110F102B10938B01D4
:10075A0000917D0148E00E94480E088300918B01B8
:10076A001881110F110F102B10938B0100917E012C
:10077A0048E00E94480E088300918B011881110FEE
:10078A00110F110F102B10938B01A59AAD9A00E04F
:10079A00088304C0AD980881039508830881023351
:1007AA00C8F3AD9A04B3007F04BB03B30F70109172
:1007BA007F012091680130E0F901E05AFE4F208163
:1007CA002170121B10937F01102F1170EFE7F1E0D7
:1007DA002081210F2083109180012091680130E04F
:1007EA00F901E05AFE4F208122702595121B1093C1
:1007FA008001102F12701595E0E8F1E02081210F99
:10080A002083109181012091680130E0F901E05ABA
:10081A00FE4F2081247025952595121B1093810186
:10082A00102F147015951595E1E8F1E02081210F3C
:10083A002083109182012091680130E0F901E05A89
:10084A00FE4F20812870259525952595121B10931A
:10085A008201102F1870159515951595E2E8F1E0AB
:10086A002081210F20832091680130E0F901E05AAC
:10087A00FE4F008300916801039507700093680199
:10088A0000918C010093A40100E000938C01009177
:10089A007F0148E00E94480E088300918C0118816C
:1008AA00102B10938C010091800148E00E94480EA1
:1008BA00088300918C011881110F102B10938C0161
:1008CA000091810148E00E94480E088300918C0142
:1008DA001881110F110F102B10938C0100918201B6
:1008EA0048E00E94480E088300918C011881110F7C
:1008FA00110F110F102B10938C01A69AAE9A00E0DB
:10090A00088304C0AE9808810395088308810233DE
:10091A00C8F3AE9A04B3007F04BB03B30F701091FF
:10092A0083012091710130E0F901E759FE4F2081DE
:10093A002170121B10938301102F1170E3E8F1E06C
:10094A002081210F2083109184012091710130E0D0
:10095A00F901E759FE4F208122702595121B109349
:10096A008401102F12701595E4E8F1E02081210F1F
:10097A002083109185012091710130E0F901E75936
:10098A00FE4F2081247025952595121B1093850111
:10099A00102F147015951595E5E8F1E02081210FC7
:1009AA002083109186012091710130E0F901E75905
:1009BA00FE4F20812870259525952595121B1093A9
:1009CA008601102F1870159515951595E6E8F1E032
:1009DA002081210F20832091710130E0F901E7592C
:1009EA00FE4F008300917101039507700093710116
:1009FA0000918D010093A50100E000938D01009103
:100A0A00830148E00E94480E088300918D011881F5
:100A1A00102B10938D010091840148E00E94480E2A
:100A2A00088300918D011881110F102B10938D01ED
:100A3A000091850148E00E94480E088300918D01CB
:100A4A001881110F110F102B10938D01009186013F
:100A5A0048E00E94480E088300918D011881110F09
:100A6A00110F110F102B10938D01A79AAF9A00E066
:100A7A00088304C0AF98088103950883088102336C
:100A8A00C8F3AF9A04B3007F04BB03B30F7010918D
:100A9A00870120917A0130E0F901EE58FE4F20815A
:100AAA002170121B10938701102F1170E7E8F1E0F3
:100ABA002081210F20831091880120917A0130E052
:100ACA00F901EE58FE4F208122702595121B1093D2
:100ADA008801102F12701595E8E8F1E02081210FA6
:100AEA0020831091890120917A0130E0F901EE58B2
:100AFA00FE4F2081247025952595121B109389019C
:100B0A00102F147015951595E9E8F1E02081210F51
:100B1A00208310918A0120917A0130E0F901EE5880
:100B2A00FE4F20812870259525952595121B109337
:100B3A008A01102F1870159515951595EAE8F1E0B8
:100B4A002081210F208320917A0130E0F901EE58AB
:100B5A00FE4F008300917A010395077000937A0192
:100B6A0000918E010093A60100E000938E0100918E
:100B7A00870148E00E94480E088300918E0118817F
:100B8A00102B10938E010091880148E00E94480EB4
:100B9A00088300918E011881110F102B10938E017A
:100BAA000091890148E00E94480E088300918E0155
:100BBA001881110F110F102B10938E0100918A01C9
:100BCA0048E00E94480E088300918E011881110F97
:100BDA00110F110F102B10938E0100918D0110919E
:100BEA00A50121960895102F105041F01A95D9F0B9
:100BFA001A9571F11A9509F440C054C010918B01ED
:100C0A002091A30110952095212310E0F801E955C0
:100C1A00FE4F108112231F70202F30E0F901E15797
:100C2A00FE4F108340C010918C012091A4011095B1
:100C3A002095212310E0F801E955FE4F1081122377
:100C4A001F70202F30E0F901E157FE4F10832BC0AF
:100C5A0010918D012091A50110952095212310E076
:100C6A00F801E955FE4F108112231F70202F30E042
:100C7A00F901E157FE4F108316C010918E012091A1
:100C8A00A60110952095212310E0F801E955FE4FA1
:100C9A00108112231F70202F30E0F901E157FE4F17
:100CAA00108301C010E0012F0895102F105039F061
:100CBA001A95C9F01A9559F11A95E9F150C010918F
:100CCA008B012091A3012095212310E0F801E5551D
:100CDA00FE4F108112231F70202F30E0F901ED56CC
:100CEA00FE4F10833DC010918C012091A4012095E4
:100CFA00212310E0F801E555FE4F108112231F70E1
:100D0A00202F30E0F901ED56FE4F108329C01091D3
:100D1A008D012091A5012095212310E0F801E555C8
:100D2A00FE4F108112231F70202F30E0F901ED567B
:100D3A00FE4F108315C010918E012091A6012095B7
:100D4A00212310E0F801E555FE4F108112231F7090
:100D5A00202F30E0F901ED56FE4F108301C010E05C
:100D6A00012F0895102F105039F01A95C9F01A95CD
:100D7A0059F11A95E9F150C020918B011091A30104
:100D8A002095212310E0F801E155FE4F108112232E
:100D9A001F70202F30E0F901E956FE4F10833DC045
:100DAA0020918C011091A4012095212310E0F801D3
:100DBA00E155FE4F108112231F70202F30E0F901F8
:100DCA00E956FE4F108329C020918D011091A5018B
:100DDA002095212310E0F801E155FE4F10811223DE
:100DEA001F70202F30E0F901E956FE4F108315C01D
:100DFA0020918E011091A6012095212310E0F8017F
:100E0A00E155FE4F108112231F70202F30E0F901A7
:100E1A00E956FE4F108301C010E0012F0895102FEC
:100E2A00105039F01A95C1F01A9549F11A95D1F175
:100E3A004CC010918B012091A301212310E0F801ED
:100E4A00ED54FE4F108112231F70202F30E0F9015C
:100E5A00E556FE4F10833AC010918C012091A401EF
:100E6A00212310E0F801ED54FE4F108112231F7068
:100E7A00202F30E0F901E556FE4F108327C010916C
:100E8A008D012091A501212310E0F801ED54FE4FB8
:100E9A00108112231F70202F30E0F901E556FE4F12
:100EAA00108314C010918E012091A601212310E015
:100EBA00F801ED54FE4F108112231F70202F30E0ED
:100ECA00F901E556FE4F108301C010E0012F089585
:100EDA009A938A93FA93EA933A922A921A920A92E4
:100EEA007A936A935A934A933A932A931A930A9350
:100EFA009FB70FEF0ABBD898009155010A9519F0D0
:100F0A000A9579F00FC088DB009156010B3018F072
:100F1A0002E000935501E6E5F1E0008103950083C4
:100F2A0001C07ADB00E080E004C0082F5CDE002B01
:100F3A0083958430D0F300939F0100E080E004C0E1
:100F4A00082FB3DE002B83958430D0F30093A001E1
:100F5A0000E080E004C0082F05DF002B8395843071
:100F6A00D0F30093A10100E080E004C0082F57DF0E
:100F7A00002B83958430D0F30093A2010091EC01F9
:100F8A00D3D90FEF0ABBD89AE8EBF1E000810395B9
:100F9A0000830091B80100950BBBEAEEF1E00081F5
:100FAA0011810F5F1F4F008311830091B70112B7A0
:100FBA00100F12BF9FBF0991199129913991499137
:100FCA005991699179910990199029903990E991EB
:100FDA00F991899199911895FA93EA931A930A9338
:100FEA001FB705E50FB9E8EBF1E00081039500832F
:100FFA001FBF09911991E991F99118959A938A93CA
:10100A002B97F8940E943F0A00E011EE0E945809BB
:10101A0000E00E94D90901E00E94180A00E00E943B
:10102A00EF090E94800B0E947C0B0E94AC0B0E946D
:10103A00B30B0E949C0B0E94840B0E94A40B0E947B
:10104A00900B0E94940B0E94880B0E94A80B0E948E
:10105A00A00B0E94360B00E010E00A831B83F5D92F
:10106A0000E00093160223D9C0DA7894AADA0CEFCA
:10107A0010E00E94D80F0C831D8300E010E00A8361
:10108A001B8333C00A811B81F801E351FE4F0081A3
:10109A0010E01A930A9309EF10E00E94D80F2296E3
:1010AA000C831D830A811B810F5F1F4F0A831B83D9
:1010BA008A819B818732904028F30A811B810F5FC6
:1010CA001F4F0A831B8301E60E8300E010E00883AA
:1010DA00198300E010E00C831D8300E010E020E09B
:1010EA0030E00F83188729873A8700E000931502BA
:1010FA000E94E400088319830DEE10E028813981EB
:10110A00E22FF0E0E00FF11F04910270002331F0AA
:10111A000881198110E00F75107003C008811981C8
:10112A0010E01A930A9309EF10E00E94D80F229652
:10113A000C831D83088119812091150230E0F90181
:10114A00E351FE4F0083E5E1F2E00081039500835D
:10115A0000911502083228F0E5E1F2E000810A95D3
:10116A000083088119810A3000E0100731F407EF83
:10117A0010E00E94D80F0C831D83088119810A3060
:10118A0000E0100709F0B4CF00E010E00A831B83E7
:10119A008FCF9A938A93C8010E94DE0B8C018991A2
:1011AA0099910895539A549A579A0895539854982E
:1011BA0057980895E4EDF0E0059114913197E8E12C
:1011CA00F2E000831183E6EDF0E0049100931A0245
:1011DA00E7EDF0E0049100931B02E8EDF0E00491E2
:1011EA0000931C02E9EDF0E0049100931D02EAED80
:1011FA00F0E0049100931E02EBEDF0E004910093FD
:10120A001F02ECEDF0E0049100932002EDEDF0E016
:10121A00049100932102EEEDF0E004910093220282
:10122A00EFEDF0E0049100932302E0EEF0E0049188
:10123A0000932402E1EEF0E0049100932502E2EE2D
:10124A00F0E0049100932602E3EEF0E004910093AB
:10125A002702E4EEF0E0049100932802E5EEF0E0C4
:10126A00049100932902E6EEF0E0049100932C0227
:10127A00E7EEF0E0049100932B02E8EEF0E004912F
:10128A0000932A02E9EEF0E0049100932D02EAEEBF
:10129A00F0E0049100932E02EBEEF0E0049100934B
:1012AA002F02089508950E94B80F2697C8017EDF7D
:1012BA0001E009830BB102700883FC01E050F64992
:1012CA00C9F0E050FB44B1F0EC52F04299F0EC5214
:1012DA00F14081F0E855F24069F0E05BF44051F0EA
:1012EA00E056F94039F0E05CF24121F0E058F5426D
:1012FA0009F053C00881002331F500E018E027E027
:10130A0030E0AC0160E070E00E948B0E01501040AA
:10131A00204030400A831B832C833D830A811B8132
:10132A002C813D8109B90A811B812C813D81A0B59F
:10133A00A07F40E051E060E070E00E948B0E0F70E9
:10134A000A2B00BD25C000E010E12EE030E0AC0120
:10135A0060E070E00E948B0E015010402040304047
:10136A000A831B832C833D830A811B812C813D8147
:10137A0009B90A811B812C813D81A0B5A07F40E07B
:10138A0051E060E070E00E948B0E0F700A2B00BDE6
:10139A00E8E1F2E08083918302C000E0098302DF82
:1013AA002696E3E00C94C90F8A93802FFFDE8823E8
:1013BA0039F45998E8E1F2E00081118174DF07C03D
:1013CA005998E8E1F2E0008111816DDF599AEADE6D
:1013DA00899108958A93802FE9DE082F005029F019
:1013EA000150C8F0045030F016C000E02DD08093B0
:1013FA001C0216C080931C0200911D02005019F0B5
:10140A000A9519F005C000E01FD001E01DD008C000
:10141A0000E01AD005C000E000931C0200E014D0DE
:10142A00C1DE899108958A93802FC0DE082F00506B
:10143A0011F00A9519F480931D0203C001E000938C
:10144A001D02B0DE89910895102F105019F01A95D7
:10145A0031F00AC05298509800931B020895529A8C
:10146A00509A00931B0208955298509800E00093F6
:10147A001B0208959A938A93239714B305E00127D0
:10148A000A830A8104BB15B305E001270A830A818E
:10149A0005BB02E00AB90CB10A8300E20BB900B538
:1014AA00007F00BD00E009B901E010E0088319835C
:1014BA000DC000E028813981F901EE5AFD4F008301
:1014CA00088119810F5F1F4F0883198388819981C9
:1014DA008132904074F300E00093720200E00093BE
:1014EA00730201E010E0088319830DC000E028812F
:1014FA003981F901E05DFD4F0083088119810F5F91
:10150A001F4F08831983888199818132904074F32F
:10151A0000E00093500200E00093510201E010E065
:10152A000883198313C080E090E00881198142E0A2
:10153A0050E00E94560EF801EC58FD4F80839183CB
:10154A00088119810F5F1F4F088319838881998148
:10155A008630904044F300E010E020E030E0EEE70F
:10156A00F2E0008311832283338300E010E020E05D
:10157A0030E0E6E8F2E0008311832283338300E05F
:10158A0010E020E030E0E2E8F2E0008311832283F9
:10159A00338300E010E020E030E0EAE8F2E0008384
:1015AA0011832283338300E010E0E8E1F2E0008354
:1015BA00118300E000931A0200E000931B0200E08E
:1015CA0000931C0201E000931D0200E000931E023A
:1015DA0000E000931F0201E00093200200E0009364
:1015EA00210201E00093220200E00093230201E0BD
:1015FA000093240200E00093250201E000932602F2
:10160A0000E00093290200E000932C0200E000931E
:10161A002B0200E000932A0200E000932D0200E072
:10162A0000932E0200E000931702009128010A9508
:10163A0019F00A9519F003C035DE01C0BBDD01E0DF
:10164A0000931702E8E1F2E0008111812CDE02E04A
:10165A000093170203E00093170223968991999148
:10166A0008950E94B70FA2DD81E090E00DC0A0E0CE
:10167A00B0E08C0142E050E00E94560EF801EC58AE
:10168A00FD4FA083B1830196863000E0900778F37E
:10169A0000E010E020E030E0EEE7F2E000831183A2
:1016AA002283338300E010E020E030E0E6E8F2E055
:1016BA00008311832283338300E010E020E030E0CE
:1016CA00E2E8F2E0008311832283338300E010E032
:1016DA0020E030E0EAE8F2E00083118322833383DA
:1016EA0001E000932F025EDDE4E00C94C80F00E0F5
:1016FA0000931E02089500E000932D02089500E071
:10170A0000931F02089500E0009320028C9A009132
:10171A002002949A089500E000932302089500E0BD
:10172A00009324028D9A00912402959A089500E06C
:10173A0000932102089500E000932202089500E038
:10174A0000932502089500E000932602089500E020
:10175A0000932A0200E000932B02089500E0009310
:10176A002C0200E000932902089520912F022223DF
:10177A0069F042E050E00E94560EF801EC58FD4F25
:10178A00008111810F5F1F4F00831183089500911B
:10179A005002109151020117D1F3009151020395A1
:1017AA000F710093510210E0F801E05DFD4F0081D6
:1017BA0008952091720223952F71109173022117B7
:1017CA00E1F330E0F901EE5AFD4F008320937202F3
:1017DA00559A0895BA93AA939A938A93FA93EA9395
:1017EA003A922A921A920A927A936A935A934A934B
:1017FA003A932A931A930A93BFB7239700911E022A
:10180A00005041F000911F020A9521F48C9A009130
:10181A002002949A00911E020050C9F00091210200
:10182A000A9549F48E9800B30074000F07FB000B69
:10183A0000F900932202009125020A9541F48B983F
:10184A0000B308700595059505950093260200E0FA
:10185A0008835C9B05C001E0088301E010E085DF96
:10186A00ACB1589B05C001E0088302E010E07DDFBF
:10187A0000911D02005019F00A9561F012C00A2F5A
:10188A000E94BD00902F8A2F8078082F000F80E0D9
:10189A00881F07C00A2F0E94C800902F8AB1827041
:1018AA00859500911C020A9539F00A9571F00A95FE
:1018BA00B1F00A95E1F022C091708917F9F001E0C0
:1018CA00088303E010E051DF19C0909591708917E1
:1018DA00A9F001E0088303E010E047DF0FC0813080
:1018EA0069F001E0088303E010E03FDF07C08823C6
:1018FA0029F001E0088303E010E037DF08810023C4
:10190A0009F09BC08091500283958F71009151021A
:10191A00801721F404E010E028DF02C0809350020F
:10192A0000911E020A9509F051C0009150020D3132
:10193A0050F0009123020A9579F48D9A959A01E064
:10194A000093240209C0009123020A9529F48D9A72
:10195A00959800E00093240200912B020A95B1F5B4
:10196A00009150020D3140F100912A02005039F0E5
:10197A000150D8F0045060F0005081F016C0009178
:10198A00280217DFEAE2F2E00081039500831EC015
:10199A00EAE2F2E000810395008318C00091280270
:1019AA0008DF01E000932A0211C00091280201DF3A
:1019BA0001E000932A020AC000912A02005031F085
:1019CA0000912702F6DE00E000932A020881002334
:1019DA00D9F490E0FC01E05DFD4FA08300911E0266
:1019EA000A9591F4009129020A9571F4009128024E
:1019FA00A01719F401E000932C0200912702A01706
:101A0A0019F400E000932C0200912D02013011F428
:101A1A000A2FCFDE00912F02013009F5EEE7F2E03E
:101A2A0000811181228133810F5F1F4F2F4F3F4F5A
:101A3A00008311832283338312C000912F02013065
:101A4A0071F4E2E8F2E000811181228133810F5FB3
:101A5A001F4F2F4F3F4F00831183228333832396D7
:101A6A00BFBF099119912991399149915991699168
:101A7A0079910990199029903990E991F991899170
:101A8A009991A991B99118959A938A93FA93EA939D
:101A9A003A922A921A920A927A936A935A934A9398
:101AAA003A932A931A930A939FB701E010911E0260
:101ABA001A9541F410911F021A9521F48C9A1091EB
:101ACA002002949A10911E021A9541F41091230251
:101ADA001A9521F48D9A10912402959A10911E025A
:101AEA001A95C9F4109121021A9549F48E9810B3E7
:101AFA001074110F17FB110B10F910932202109199
:101B0A0025021A9541F48B9810B3187015951595FE
:101B1A0015951093260210911E021A9569F51091D7
:101B2A002902113029F410912C02105009F000E01A
:101B3A0010912502113029F4109126021A9509F400
:101B4A0000E010912102113029F4109122021A9515
:101B5A0009F400E010912302113029F410912402B3
:101B6A001A9509F400E010911F02113029F410911E
:101B7A0020021A9509F400E0013009F05BC00091D7
:101B8A00720210917302011709F452C00091730294
:101B9A0003950F710093730210E0F801EE5AFD4F9E
:101BAA00808100911D02005019F00A9529F008C0A1
:101BBA00082F0E94BD0007C0082F0E94C80003C05A
:101BCA00082F0E94C80010911C021050D1F01A95DB
:101BDA0039F01A9559F01A9579F01A9579F010C0DA
:101BEA00002311F450980DC0509A0BC0002311F431
:101BFA00509A07C0509805C0509A03C0509801C027
:101C0A00509A10E05099139520911D02205019F016
:101C1A002A9559F00BC0082F0068112319F40F7781
:101C2A0010E004C0006811E001C0082F0CB903C01D
:101C3A00559801C055989FBF0991199129913991D9
:101C4A0049915991699179910990199029903990FE
:101C5A00E991F9918991999118950CEE03500DBF6C
:101C6A0000E000400EBFC0EBD0E00E94D30F00237B
:101C7A0011F00E94F30F00E00BBF0E9403080E94BC
:101C8A000D100C940D100024E8E0EA9532F0001FC4
:101C9A00001C0416D0F3041AF8CF001F402D00953B
:101CAA000895002411240030010741F01695079584
:101CBA0010F4040E151E440F551FF5CF002D112DDB
:101CCA00089500241124EFE0001F111F001C111CAD
:101CDA000416150610F0041A150AEA95AAF7001F49
:101CEA00111F402D512D009510950895309520957E
:101CFA00109501951F4F2F4F3F4F08954A952AF08F
:101D0A003695279517950795F9CF0895002411243C
:101D1A0022243324E0E2EA9592F0001F111F221FC9
:101D2A00331F001C111C221C331C04161506260620
:101D3A00370688F3041A150A260A370AECCF001F59
:101D4A00111F221F331F402D512D622D732D009517
:101D5A001095209530950895FF271124770F179431
:101D6A00660F7F1F09F008946795EE270024330F4A
:101D7A000794220F3E1F09F008942795089527FD1E
:101D8A000EC0EE0F001F111F221F3A953230B8F70E
:101D9A00332319F427FD31E002C027FF30E0E03891
:101DAA0011F400FF08940F4F1F4F2F4F3F4F32304F
:101DBA0038F4332319F427FD31E002C027FF30E05D
:101DCA003F3F09F4BBC0220F000C379527950895B1
:101DDA00032E002012F40E947B0EE02F012F122FF7
:101DEA00232F3EE9D3CF0024F8CFBFDF432F4F572D
:101DFA0060F0403260F000202AF00FEF1FEF2FEF63
:101E0A003FE7089530E8222796C03327FCCF322FC8
:101E1A00212F102F0E2F4F5141950E94830E07FE3E
:101E2A0008950C947B0EE22FEF77E0301E070E0721
:101E3A000895E62FEF77E0305E074E070895E32F07
:101E4A00EE0F27FBE0F9EF3F61F0EE2311F4EBDF31
:101E5A0029F0332398948894B894089533231894D6
:101E6A00FACFE1DF19F00894B89403C033238894B9
:101E7A00389498940895E72FEE0F67FBE0F9EF3F47
:101E8A0041F0EE2311F4D5DF11F07723E3CF772366
:101E9A00E6CFCFDF41F77723EACFEDDF70F029F401
:101EAA003723262F152F042F0895372FFACFE3DF74
:101EBA0020F00BF008957327EAF744C0C0DFE8F377
:101ECA00B3F359F3D8DFC8F383F3A1F345DF40171F
:101EDA0051076207730778F0332E372F732D322E8E
:101EEA00262F632D312E152F532D302E042F432DDF
:101EFA00302C012C132C371739F0669557954795D6
:101F0A00F795E7957395F7CFEE0FE0E010245AF0B6
:101F1A00EF0F041F151F261F50F4279517950795D5
:101F2A00E795339533CFEF0B040B150B260B2ECF0A
:101F3A00302D307822271127002708953FE73029CE
:101F4A0020E8F9CF302D3F672FEFF5CFFA92EA92CA
:101F5A00DA92CA92BA92AA929A928A927A926A92D7
:101F6A005A924A92BA93AA939A938A930895FF84AB
:101F7A00EE84DD84CC84BB84AA84998488847F809F
:101F8A006E805D804C80BB81AA8199818881F0E056
:101F9A000FB6F894CE0FDF1F0FBE089501E0089523
:101FAA0010E00C94CE0822979E012E5F3F4F2883A3
:101FBA003983BE0140E050E025ED3FE00E94101059
:101FCA002296089520E02D9301501040D9F70895E4
:101FDA0025912D9301501040D9F708958DE691E08F
:101FEA00FC0105911491FC013296A591B491FC0172
:101FFA00349625913491422F432B19F0F901E8DFE9
:10200A0001C0E0DF069611E08937910748F3089589
:10201A0000008895FECF0E94AB0F2697088319838C
:10202A002A833B834C835D834B01CC24DD2401C08E
:10203A00C4D0C7D005E2A01639F0AA20C9F7860194
:10204A002696E0E10C94BC0F10E000E020812856AF
:10205A0021F0245041F401E001C011E09F012F5FFB
:10206A003F4F28833983ADD02A2D285509F46DC0F6
:10207A002B5059F02A9509F458C02B50E1F02450FE
:10208A0061F0255009F461C0D3CFD401ED91FC91E0
:10209A00A190B190FC93EE93CBCFD401ED91FC913A
:1020AA0081919191FC93EE93FC01A190CF01AA201A
:1020BA0001F283D0F9CF28E094D011F4002379F506
:1020CA00442420E8522E66247724112309F44CC0B4
:1020DA007ED009F046C0A92FAA0FAA0BBA2F04E690
:1020EA00A01669F4BB235AF49095A095B0958195F2
:1020FA009F4FAF4FBF4F2C813D810DE276D002E05A
:10210A00401600E050066006700608F44CC08415BC
:10211A009505A605B70508F046C06FD0F0CF442450
:10212A005524662400E4702E21C02AE05AD011F406
:10213A00002321F420E1422E27E2C4CF44240AECF2
:10214A00502E0AE9602E0BE3EECF20E14AD011F4BB
:10215A00002311F44424B6CF44245524662400E114
:10216A00E2CFA0E0B0E0CBCF002361F0F401A08180
:10217A00B1810D911D912D913D91A083B183C8012B
:10218A00D901ADCF24D069F7A6CF495F2C813D8113
:10219A00042F2BD03CD0CA01DB012FD0012B022BFC
:1021AA00032B09F446CF33D0402F405D4A3370F3F6
:1021BA0008E7A01651F7495DE9CF2C813D810A2D28
:1021CA0014C0E881F981A190E883F983089504E6AF
:1021DA00A016F401A081B1818D919D91A083B18354
:1021EA000895E22EFF2411230895EA81FB810995BF
:1021FA0001E0C00E00E0D01E089582019301A701FC
:10220A0060E070E00E948B0E2801390108958C016C
:10221A009D01A201B3010C948B0E5E5A005E430A23
:10222A0000082008000D00256300546573742076A9
:10223A00657220302E303220666F722066696C65B6
:10224A0020274132782E6327204B45595F434F4E52
:07225A005452200A0D00029E
:00000001FF
